{
  "contractName": "GoldSeek3",
  "abi": [
    {
      "inputs": [],
      "stateMutability": "nonpayable",
      "type": "constructor"
    },
    {
      "inputs": [],
      "name": "DividendPool",
      "outputs": [
        {
          "internalType": "uint256",
          "name": "",
          "type": "uint256"
        }
      ],
      "stateMutability": "view",
      "type": "function",
      "constant": true
    },
    {
      "inputs": [],
      "name": "TotalEthStaked",
      "outputs": [
        {
          "internalType": "uint256",
          "name": "",
          "type": "uint256"
        }
      ],
      "stateMutability": "view",
      "type": "function",
      "constant": true
    },
    {
      "inputs": [],
      "name": "TotalSupply",
      "outputs": [
        {
          "internalType": "uint256",
          "name": "",
          "type": "uint256"
        }
      ],
      "stateMutability": "view",
      "type": "function",
      "constant": true
    },
    {
      "inputs": [
        {
          "internalType": "address",
          "name": "",
          "type": "address"
        }
      ],
      "name": "_ReferralCommission",
      "outputs": [
        {
          "internalType": "uint256",
          "name": "",
          "type": "uint256"
        }
      ],
      "stateMutability": "view",
      "type": "function",
      "constant": true
    },
    {
      "inputs": [
        {
          "internalType": "address",
          "name": "",
          "type": "address"
        }
      ],
      "name": "_holderBalances",
      "outputs": [
        {
          "internalType": "uint256",
          "name": "",
          "type": "uint256"
        }
      ],
      "stateMutability": "view",
      "type": "function",
      "constant": true
    },
    {
      "inputs": [
        {
          "internalType": "address",
          "name": "",
          "type": "address"
        }
      ],
      "name": "_holderPaidOUt",
      "outputs": [
        {
          "internalType": "uint256",
          "name": "",
          "type": "uint256"
        }
      ],
      "stateMutability": "view",
      "type": "function",
      "constant": true
    },
    {
      "inputs": [
        {
          "internalType": "address",
          "name": "",
          "type": "address"
        }
      ],
      "name": "_holderPersonalEth",
      "outputs": [
        {
          "internalType": "uint256",
          "name": "",
          "type": "uint256"
        }
      ],
      "stateMutability": "view",
      "type": "function",
      "constant": true
    },
    {
      "inputs": [],
      "name": "owner",
      "outputs": [
        {
          "internalType": "address",
          "name": "",
          "type": "address"
        }
      ],
      "stateMutability": "view",
      "type": "function",
      "constant": true
    },
    {
      "inputs": [],
      "name": "payment",
      "outputs": [
        {
          "internalType": "uint256",
          "name": "",
          "type": "uint256"
        }
      ],
      "stateMutability": "view",
      "type": "function",
      "constant": true
    },
    {
      "inputs": [],
      "name": "rateOfDiv",
      "outputs": [
        {
          "internalType": "uint256",
          "name": "",
          "type": "uint256"
        }
      ],
      "stateMutability": "view",
      "type": "function",
      "constant": true
    },
    {
      "inputs": [],
      "name": "tokenPriceInitial_",
      "outputs": [
        {
          "internalType": "uint256",
          "name": "",
          "type": "uint256"
        }
      ],
      "stateMutability": "view",
      "type": "function",
      "constant": true
    },
    {
      "inputs": [
        {
          "internalType": "address",
          "name": "referrer",
          "type": "address"
        }
      ],
      "name": "buy",
      "outputs": [
        {
          "internalType": "uint256",
          "name": "",
          "type": "uint256"
        }
      ],
      "stateMutability": "payable",
      "type": "function",
      "payable": true
    },
    {
      "inputs": [
        {
          "internalType": "uint256",
          "name": "number",
          "type": "uint256"
        }
      ],
      "name": "sell",
      "outputs": [],
      "stateMutability": "payable",
      "type": "function",
      "payable": true
    },
    {
      "inputs": [
        {
          "internalType": "address",
          "name": "holder",
          "type": "address"
        }
      ],
      "name": "dividendBalance",
      "outputs": [
        {
          "internalType": "uint256",
          "name": "",
          "type": "uint256"
        }
      ],
      "stateMutability": "view",
      "type": "function",
      "constant": true
    },
    {
      "inputs": [
        {
          "internalType": "address",
          "name": "holder",
          "type": "address"
        }
      ],
      "name": "ReferralBalance",
      "outputs": [
        {
          "internalType": "uint256",
          "name": "",
          "type": "uint256"
        }
      ],
      "stateMutability": "view",
      "type": "function",
      "constant": true
    },
    {
      "inputs": [
        {
          "internalType": "uint256",
          "name": "amount",
          "type": "uint256"
        }
      ],
      "name": "withdrawrReferral",
      "outputs": [],
      "stateMutability": "payable",
      "type": "function",
      "payable": true
    },
    {
      "inputs": [
        {
          "internalType": "uint256",
          "name": "amount",
          "type": "uint256"
        }
      ],
      "name": "withdrawDividend",
      "outputs": [],
      "stateMutability": "payable",
      "type": "function",
      "payable": true
    },
    {
      "inputs": [
        {
          "internalType": "uint256",
          "name": "amount",
          "type": "uint256"
        }
      ],
      "name": "withdrawPersonalEth",
      "outputs": [],
      "stateMutability": "payable",
      "type": "function",
      "payable": true
    },
    {
      "inputs": [],
      "name": "balanceOf",
      "outputs": [
        {
          "internalType": "uint256",
          "name": "",
          "type": "uint256"
        },
        {
          "internalType": "uint256",
          "name": "",
          "type": "uint256"
        },
        {
          "internalType": "uint256",
          "name": "",
          "type": "uint256"
        },
        {
          "internalType": "uint256",
          "name": "",
          "type": "uint256"
        }
      ],
      "stateMutability": "view",
      "type": "function",
      "constant": true
    },
    {
      "inputs": [
        {
          "internalType": "uint256",
          "name": "tamount",
          "type": "uint256"
        }
      ],
      "name": "getTValues",
      "outputs": [
        {
          "internalType": "uint256",
          "name": "",
          "type": "uint256"
        },
        {
          "internalType": "uint256",
          "name": "",
          "type": "uint256"
        },
        {
          "internalType": "uint256",
          "name": "",
          "type": "uint256"
        },
        {
          "internalType": "uint256",
          "name": "",
          "type": "uint256"
        },
        {
          "internalType": "uint256",
          "name": "",
          "type": "uint256"
        }
      ],
      "stateMutability": "view",
      "type": "function",
      "constant": true
    },
    {
      "inputs": [
        {
          "internalType": "uint256",
          "name": "tamount",
          "type": "uint256"
        }
      ],
      "name": "getSValues",
      "outputs": [
        {
          "internalType": "uint256",
          "name": "",
          "type": "uint256"
        },
        {
          "internalType": "uint256",
          "name": "",
          "type": "uint256"
        }
      ],
      "stateMutability": "view",
      "type": "function",
      "constant": true
    },
    {
      "inputs": [
        {
          "internalType": "uint256",
          "name": "_ethereum",
          "type": "uint256"
        }
      ],
      "name": "ethereumToTokens_",
      "outputs": [
        {
          "internalType": "uint256",
          "name": "",
          "type": "uint256"
        }
      ],
      "stateMutability": "view",
      "type": "function",
      "constant": true
    }
  ],
  "bytecode": "0x60806040526ba0d000000000000000000000600760006101000a81548173ffffffffffffffffffffffffffffffffffffffff021916908373ffffffffffffffffffffffffffffffffffffffff16021790555073412fc8f58d2c68d5c1c7a011660aefa5f261d862600860006101000a81548173ffffffffffffffffffffffffffffffffffffffff021916908373ffffffffffffffffffffffffffffffffffffffff160217905550737cfa8cd3da48de9d86ad221662f38a1295d177ec600960006101000a81548173ffffffffffffffffffffffffffffffffffffffff021916908373ffffffffffffffffffffffffffffffffffffffff1602179055506019600a55600a600b556007600c556003600d556005600e556007600f55600060125534801561012a57600080fd5b5033600560006101000a81548173ffffffffffffffffffffffffffffffffffffffff021916908373ffffffffffffffffffffffffffffffffffffffff160217905550611a7f8061017b6000396000f3fe6080604052600436106101355760003560e01c80638da5cb5b116100ab578063c4c1b39a1161006f578063c4c1b39a1461043e578063da743da014610469578063dceaa847146104aa578063e4849b32146104e8578063f088d54714610504578063f6efd4c31461053457610135565b80638da5cb5b14610343578063a0afd7311461036e578063a44b47f7146103ab578063b3d0b121146103d6578063bf3dd4f11461040157610135565b80633998fc44116100fd5780633998fc441461023857806342f6487a1461025457806346669e171461027f5780635d260527146102bc5780635d9bd8b2146102f9578063722713f71461031557610135565b806304cd9ccd1461013a5780630ccd0834146101775780632388cc1a146101b45780632a562134146101d05780632a9121c7146101fb575b600080fd5b34801561014657600080fd5b50610161600480360381019061015c91906113d7565b61055f565b60405161016e91906115f4565b60405180910390f35b34801561018357600080fd5b5061019e600480360381019061019991906113d7565b6105a8565b6040516101ab91906115f4565b60405180910390f35b6101ce60048036038101906101c99190611400565b6105c0565b005b3480156101dc57600080fd5b506101e56106e2565b6040516101f291906115f4565b60405180910390f35b34801561020757600080fd5b50610222600480360381019061021d9190611400565b6106e8565b60405161022f91906115f4565b60405180910390f35b610252600480360381019061024d9190611400565b610805565b005b34801561026057600080fd5b50610269610927565b60405161027691906115f4565b60405180910390f35b34801561028b57600080fd5b506102a660048036038101906102a191906113d7565b61092d565b6040516102b391906115f4565b60405180910390f35b3480156102c857600080fd5b506102e360048036038101906102de91906113d7565b610945565b6040516102f091906115f4565b60405180910390f35b610313600480360381019061030e9190611400565b61095d565b005b34801561032157600080fd5b5061032a610a48565b60405161033a9493929190611638565b60405180910390f35b34801561034f57600080fd5b50610358610b82565b6040516103659190611579565b60405180910390f35b34801561037a57600080fd5b50610395600480360381019061039091906113d7565b610ba8565b6040516103a291906115f4565b60405180910390f35b3480156103b757600080fd5b506103c0610c66565b6040516103cd91906115f4565b60405180910390f35b3480156103e257600080fd5b506103eb610c6c565b6040516103f891906115f4565b60405180910390f35b34801561040d57600080fd5b50610428600480360381019061042391906113d7565b610c72565b60405161043591906115f4565b60405180910390f35b34801561044a57600080fd5b50610453610c8a565b60405161046091906115f4565b60405180910390f35b34801561047557600080fd5b50610490600480360381019061048b9190611400565b610c93565b6040516104a195949392919061167d565b60405180910390f35b3480156104b657600080fd5b506104d160048036038101906104cc9190611400565b610d5e565b6040516104df92919061160f565b60405180910390f35b61050260048036038101906104fd9190611400565b610d9c565b005b61051e600480360381019061051991906113d7565b610eca565b60405161052b91906115f4565b60405180910390f35b34801561054057600080fd5b506105496112d1565b60405161055691906115f4565b60405180910390f35b6000600360008373ffffffffffffffffffffffffffffffffffffffff1673ffffffffffffffffffffffffffffffffffffffff168152602001908152602001600020549050919050565b60006020528060005260406000206000915090505481565b80600260003373ffffffffffffffffffffffffffffffffffffffff1673ffffffffffffffffffffffffffffffffffffffff168152602001908152602001600020541015610642576040517f08c379a0000000000000000000000000000000000000000000000000000000008152600401610639906115b4565b60405180910390fd5b80600260003373ffffffffffffffffffffffffffffffffffffffff1673ffffffffffffffffffffffffffffffffffffffff16815260200190815260200160002060008282546106919190611933565b925050819055503373ffffffffffffffffffffffffffffffffffffffff166108fc829081150290604051600060405180830381858888f193505050501580156106de573d6000803e3d6000fd5b5050565b60065481565b600080670de0b6b3a764000064174876e80061070491906118d9565b905060006012546402540be4006107e56107df601254866402540be400600261072d91906118d9565b61073791906118d9565b61074191906118d9565b600260125461075091906117bb565b60026402540be40061076291906117bb565b61076c91906118d9565b670de0b6b3a76400008a61078091906118d9565b670de0b6b3a76400006402540be40061079991906118d9565b60026107a591906118d9565b6107af91906118d9565b6002896107bc91906117bb565b6107c691906116e1565b6107d091906116e1565b6107da91906116e1565b6112d7565b85611334565b6107ef9190611737565b6107f99190611933565b90508092505050919050565b80600360003373ffffffffffffffffffffffffffffffffffffffff1673ffffffffffffffffffffffffffffffffffffffff168152602001908152602001600020541015610887576040517f08c379a000000000000000000000000000000000000000000000000000000000815260040161087e90611594565b60405180910390fd5b80600360003373ffffffffffffffffffffffffffffffffffffffff1673ffffffffffffffffffffffffffffffffffffffff16815260200190815260200160002060008282546108d69190611933565b925050819055503373ffffffffffffffffffffffffffffffffffffffff166108fc829081150290604051600060405180830381858888f19350505050158015610923573d6000803e3d6000fd5b5050565b60135481565b60036020528060005260406000206000915090505481565b60016020528060005260406000206000915090505481565b8061096733610ba8565b10156109a8576040517f08c379a000000000000000000000000000000000000000000000000000000000815260040161099f906115d4565b60405180910390fd5b80600160003373ffffffffffffffffffffffffffffffffffffffff1673ffffffffffffffffffffffffffffffffffffffff16815260200190815260200160002060008282546109f791906116e1565b925050819055503373ffffffffffffffffffffffffffffffffffffffff166108fc829081150290604051600060405180830381858888f19350505050158015610a44573d6000803e3d6000fd5b5050565b600080600080601254600080600960009054906101000a900473ffffffffffffffffffffffffffffffffffffffff1673ffffffffffffffffffffffffffffffffffffffff1673ffffffffffffffffffffffffffffffffffffffff16815260200190815260200160002054600080600860009054906101000a900473ffffffffffffffffffffffffffffffffffffffff1673ffffffffffffffffffffffffffffffffffffffff1673ffffffffffffffffffffffffffffffffffffffff16815260200190815260200160002054600080600760009054906101000a900473ffffffffffffffffffffffffffffffffffffffff1673ffffffffffffffffffffffffffffffffffffffff1673ffffffffffffffffffffffffffffffffffffffff16815260200190815260200160002054935093509350935090919293565b600560009054906101000a900473ffffffffffffffffffffffffffffffffffffffff1681565b600080680100000000000000006010546000808673ffffffffffffffffffffffffffffffffffffffff1673ffffffffffffffffffffffffffffffffffffffff16815260200190815260200160002054610c0191906118d9565b610c0b9190611737565b90506000600160008573ffffffffffffffffffffffffffffffffffffffff1673ffffffffffffffffffffffffffffffffffffffff1681526020019081526020016000205482610c5a9190611933565b90508092505050919050565b60125481565b60105481565b60026020528060005260406000206000915090505481565b64174876e80081565b600080600080600080600a54606488610cac9190611737565b610cb691906118d9565b90506000600b54606489610cca9190611737565b610cd491906118d9565b90506000600c5460648a610ce89190611737565b610cf291906118d9565b90506000600d5460648b610d069190611737565b610d1091906118d9565b90506000600e5460648c610d249190611737565b610d2e91906118d9565b90506000858c610d3e9190611933565b905080858585859a509a509a509a509a5050505050505091939590929450565b6000806000600f54606485610d739190611737565b610d7d91906118d9565b905060008185610d8d9190611933565b90508082935093505050915091565b6000610dac64174876e8006106e8565b9050600064174876e8008284610dc291906118d9565b610dcc9190611737565b9050600080610dda83610d5e565b91509150846000803373ffffffffffffffffffffffffffffffffffffffff1673ffffffffffffffffffffffffffffffffffffffff1681526020019081526020016000206000828254610e2c9190611933565b925050819055508460126000828254610e459190611933565b9250508190555081600260003373ffffffffffffffffffffffffffffffffffffffff1673ffffffffffffffffffffffffffffffffffffffff1681526020019081526020016000206000828254610e9b91906116e1565b925050819055508060116000828254610eb491906116e1565b92505081905550610ec3611381565b5050505050565b600080600080600080610edc34610c93565b945094509450945094506000610ef1866106e8565b90506000600460008a73ffffffffffffffffffffffffffffffffffffffff1673ffffffffffffffffffffffffffffffffffffffff16815260200190815260200160002060009054906101000a900473ffffffffffffffffffffffffffffffffffffffff169050816000803373ffffffffffffffffffffffffffffffffffffffff1673ffffffffffffffffffffffffffffffffffffffff1681526020019081526020016000206000828254610fa591906116e1565b925050819055508260036000600760009054906101000a900473ffffffffffffffffffffffffffffffffffffffff1673ffffffffffffffffffffffffffffffffffffffff1673ffffffffffffffffffffffffffffffffffffffff168152602001908152602001600020600082825461101d91906116e1565b92505081905550856011600082825461103691906116e1565b92505081905550600073ffffffffffffffffffffffffffffffffffffffff168973ffffffffffffffffffffffffffffffffffffffff16146111d45784600360008b73ffffffffffffffffffffffffffffffffffffffff1673ffffffffffffffffffffffffffffffffffffffff16815260200190815260200160002060008282546110c091906116e1565b92505081905550600073ffffffffffffffffffffffffffffffffffffffff168173ffffffffffffffffffffffffffffffffffffffff16146111565783600360008373ffffffffffffffffffffffffffffffffffffffff1673ffffffffffffffffffffffffffffffffffffffff168152602001908152602001600020600082825461114a91906116e1565b925050819055506111cf565b8360036000600760009054906101000a900473ffffffffffffffffffffffffffffffffffffffff1673ffffffffffffffffffffffffffffffffffffffff1673ffffffffffffffffffffffffffffffffffffffff16815260200190815260200160002060008282546111c791906116e1565b925050819055505b6112a1565b8460036000600760009054906101000a900473ffffffffffffffffffffffffffffffffffffffff1673ffffffffffffffffffffffffffffffffffffffff1673ffffffffffffffffffffffffffffffffffffffff168152602001908152602001600020819055508360036000600760009054906101000a900473ffffffffffffffffffffffffffffffffffffffff1673ffffffffffffffffffffffffffffffffffffffff1673ffffffffffffffffffffffffffffffffffffffff168152602001908152602001600020819055505b81601260008282546112b391906116e1565b925050819055506112c2611381565b81975050505050505050919050565b60115481565b60008060026001846112e991906116e1565b6112f39190611737565b90508291505b8181101561132e5780915060028182856113139190611737565b61131d91906116e1565b6113279190611737565b90506112f9565b50919050565b60008282111561136d577f4e487b7100000000000000000000000000000000000000000000000000000000600052600160045260246000fd5b81836113799190611933565b905092915050565b6012546801000000000000000060115461139b91906118d9565b6113a59190611737565b601081905550565b6000813590506113bc81611a1b565b92915050565b6000813590506113d181611a32565b92915050565b6000602082840312156113e957600080fd5b60006113f7848285016113ad565b91505092915050565b60006020828403121561141257600080fd5b6000611420848285016113c2565b91505092915050565b61143281611967565b82525050565b6000611445602b836116d0565b91507f616d6f75746e206d757374206e6f74206578636565642074686520726566657260008301527f72616c2062616c616e63650000000000000000000000000000000000000000006020830152604082019050919050565b60006114ab6028836116d0565b91507f616d6f756e74206973206d6f7265207468616e2074686520706572736f6e616c60008301527f2062616c616e63650000000000000000000000000000000000000000000000006020830152604082019050919050565b60006115116028836116d0565b91507f616d6f756e74206973206d6f7265207468616e20746865206469766964656e6460008301527f2062616c616e63650000000000000000000000000000000000000000000000006020830152604082019050919050565b61157381611999565b82525050565b600060208201905061158e6000830184611429565b92915050565b600060208201905081810360008301526115ad81611438565b9050919050565b600060208201905081810360008301526115cd8161149e565b9050919050565b600060208201905081810360008301526115ed81611504565b9050919050565b6000602082019050611609600083018461156a565b92915050565b6000604082019050611624600083018561156a565b611631602083018461156a565b9392505050565b600060808201905061164d600083018761156a565b61165a602083018661156a565b611667604083018561156a565b611674606083018461156a565b95945050505050565b600060a082019050611692600083018861156a565b61169f602083018761156a565b6116ac604083018661156a565b6116b9606083018561156a565b6116c6608083018461156a565b9695505050505050565b600082825260208201905092915050565b60006116ec82611999565b91506116f783611999565b9250827fffffffffffffffffffffffffffffffffffffffffffffffffffffffffffffffff0382111561172c5761172b6119b0565b5b828201905092915050565b600061174282611999565b915061174d83611999565b92508261175d5761175c6119df565b5b828204905092915050565b6000808291508390505b60018511156117b25780860481111561178e5761178d6119b0565b5b600185161561179d5780820291505b80810290506117ab85611a0e565b9450611772565b94509492505050565b60006117c682611999565b91506117d1836119a3565b92506117fe7fffffffffffffffffffffffffffffffffffffffffffffffffffffffffffffffff8484611806565b905092915050565b60008261181657600190506118d2565b8161182457600090506118d2565b816001811461183a576002811461184457611873565b60019150506118d2565b60ff841115611856576118556119b0565b5b8360020a91508482111561186d5761186c6119b0565b5b506118d2565b5060208310610133831016604e8410600b84101617156118a85782820a9050838111156118a3576118a26119b0565b5b6118d2565b6118b58484846001611768565b925090508184048111156118cc576118cb6119b0565b5b81810290505b9392505050565b60006118e482611999565b91506118ef83611999565b9250817fffffffffffffffffffffffffffffffffffffffffffffffffffffffffffffffff0483118215151615611928576119276119b0565b5b828202905092915050565b600061193e82611999565b915061194983611999565b92508282101561195c5761195b6119b0565b5b828203905092915050565b600061197282611979565b9050919050565b600073ffffffffffffffffffffffffffffffffffffffff82169050919050565b6000819050919050565b600060ff82169050919050565b7f4e487b7100000000000000000000000000000000000000000000000000000000600052601160045260246000fd5b7f4e487b7100000000000000000000000000000000000000000000000000000000600052601260045260246000fd5b60008160011c9050919050565b611a2481611967565b8114611a2f57600080fd5b50565b611a3b81611999565b8114611a4657600080fd5b5056fea26469706673582212200cfb8e803fa13bae2dd5d77648e9427331cdd62c5053d59e06d06c9dd7471b9464736f6c63430008000033",
  "immutableReferences": {},
  "source": "// SPDX-License-Identifier: MIT\r\n\r\npragma solidity ^0.8.0;\r\n\r\ncontract GoldSeek3 {\r\n     uint256 constant public tokenPriceInitial_ = 0.0000001 ether;\r\n     uint256 constant internal tokenPriceIncremental_ = 0.00000001 ether;\r\n     \r\n     uint256 constant internal magnitude = 2**64;\r\n    mapping (address => uint256) public _holderBalances;\r\n    mapping (address => uint256) public _holderPaidOUt;\r\n    mapping (address => uint256) public _holderPersonalEth;\r\n    mapping (address => uint256) public _ReferralCommission;\r\n    mapping (address => address) _referrerMapping;\r\n\r\n    address public owner;\r\n//    uint256 public RSupply;\r\n    uint256 public TotalEthStaked;\r\n    address _admin = 0x0000000000000000A0D000000000000000000000;  \r\n    address _Referer = 0x412fc8F58D2c68D5C1c7A011660aefA5f261d862;\r\n    address I_Referer = 0x7cfa8CD3DA48dE9D86aD221662f38A1295D177eC;\r\n    uint256 commission = 25;\r\n    uint256 redistribution = 10;\r\n    uint256 direcREferCommission = 7;\r\n    uint256 inDirecREferCommission = 3;\r\n    uint256 adminFee = 5;\r\n    uint256 SellingCommission = 7;\r\n    uint256 public rateOfDiv;\r\n    uint256 public DividendPool;\r\n //   uint256 public DividendPerToken;\r\n    \r\n    uint256 public TotalSupply = 0;\r\n    \r\n    constructor (){\r\n        owner = msg.sender;\r\n    }\r\n    \r\n    \r\n    \r\n    function buy(address referrer)public payable returns(uint256){\r\n        \r\n        (\r\n          uint256 tTransfer,\r\n          uint256 dist,\r\n         uint256 drc,\r\n         uint256 Idrc,\r\n         uint256 afee) = getTValues(msg.value);\r\n        \r\n        \r\n        uint256 tokens = ethereumToTokens_(tTransfer);\r\n    address indRferrer = _referrerMapping[referrer];\r\n        \r\n        _holderBalances[msg.sender] += tokens; \r\n        _ReferralCommission[_admin] += afee;\r\n        DividendPool += dist;\r\n        if(referrer != 0x0000000000000000000000000000000000000000)\r\n            {_ReferralCommission[referrer] += drc;\r\n                if(indRferrer != 0x0000000000000000000000000000000000000000){_ReferralCommission[indRferrer] += Idrc;}\r\n                else{_ReferralCommission[_admin]+=Idrc;}\r\n            }\r\n        else{_ReferralCommission[_admin]= drc; _ReferralCommission[_admin]= Idrc;}\r\n        \r\n\r\n    \r\n        \r\n        TotalSupply += tokens;\r\n        processDiv();\r\n        \r\n        return tokens;\r\n        \r\n        }\r\n        \r\n     uint256 public payment;\r\n    \r\n    function sell(uint256 number) public payable {\r\n        \r\n        \r\n         uint256 rate = ethereumToTokens_(100000000000);\r\n         uint256 valueOFSell = number*rate / 100000000000;\r\n        \r\n        (\r\n          uint256 tTransfer,uint256 tfee) = getSValues(valueOFSell);\r\n        \r\n\r\n        _holderBalances[msg.sender] -= number;\r\n\r\n         TotalSupply -= number;\r\n         \r\n        _holderPersonalEth[msg.sender] += tTransfer;\r\n        DividendPool += tfee;\r\n        processDiv();\r\n        \r\n    }\r\n    \r\n    \r\n    // function Dividendsell(uint256 number) public payable {\r\n    \r\n        \r\n\r\n    //     _holderBalances[address(this)] -= number;\r\n    \r\n    //      TotalSupply -= number;\r\n         \r\n    //      uint256 rate = ethereumToTokens_(100000000000);\r\n    //      uint256 valueOFSell = number*rate / (100000000000 * 1000000000000000000);\r\n    //     _holderPersonalEth[msg.sender] += valueOFSell;\r\n        \r\n    // }\r\n    \r\n    function processDiv() internal {\r\n        rateOfDiv = DividendPool * magnitude / TotalSupply;\r\n    }\r\n    \r\n    function dividendBalance(address holder) public view returns(uint256) {\r\n        uint256 _dividendBalance = _holderBalances[holder] * rateOfDiv / magnitude;\r\n        uint256 dividendTopay = _dividendBalance - _holderPaidOUt[holder];\r\n        return dividendTopay;\r\n    }\r\n    \r\n    function ReferralBalance(address holder) public view returns(uint256) {\r\n        return _ReferralCommission[holder];\r\n    }\r\n    \r\n    function withdrawrReferral(uint256 amount) public payable {\r\n    require(_ReferralCommission[msg.sender] >=amount,\"amoutn must not exceed the referral balance\");\r\n    _ReferralCommission[msg.sender]-=amount;\r\n    payable(msg.sender).transfer(amount);\r\n    }\r\n    \r\n    function withdrawDividend(uint256 amount) payable public {\r\n        require(dividendBalance(msg.sender)>=amount,\"amount is more than the dividend balance\");\r\n        _holderPaidOUt[msg.sender] += amount;\r\n         payable(msg.sender).transfer(amount);\r\n    }\r\n    \r\nfunction withdrawPersonalEth(uint256 amount) payable public {\r\n        require(_holderPersonalEth[msg.sender]>=amount,\"amount is more than the personal balance\");\r\n        _holderPersonalEth[msg.sender] -= amount;\r\n         payable(msg.sender).transfer(amount);\r\n    }\r\n    \r\n    \r\nfunction balanceOf() public view returns(uint256,uint256,uint256,uint256){\r\n        return (TotalSupply,_holderBalances[I_Referer],_holderBalances[_Referer],_holderBalances[_admin]);\r\n    }\r\n\r\n\r\nfunction getTValues (uint256 tamount) public view returns (uint256,uint256,uint256,uint256,uint256){\r\n        uint256 tfee = tamount/100*commission;\r\n        uint256 dist = tamount/100*redistribution;\r\n        uint256 drc = tamount/100*direcREferCommission;\r\n        uint256 Idrc = tamount/100*inDirecREferCommission;\r\n        uint256 afee = tamount/100*adminFee;\r\n        uint256 tTransfer = tamount-tfee;\r\n        return ( tTransfer,dist,drc,Idrc,afee);\r\n    }\r\n    \r\n    \r\n    function getSValues (uint256 tamount) public view returns (uint256,uint256){\r\n        uint256 tfee = tamount/100*SellingCommission;\r\n        uint256 tTransfer = tamount-tfee;\r\n        return ( tTransfer,tfee);\r\n    }\r\n    \r\n\r\n    \r\n    \r\n    \r\n\r\nfunction ethereumToTokens_(uint256 _ethereum)\r\n        public\r\n        view\r\n        returns(uint256)\r\n    {\r\n        uint256 _tokenPriceInitial = tokenPriceInitial_ * 1e18;\r\n        uint256 _tokensReceived = \r\n         (\r\n            (\r\n                // underflow attempts BTFO\r\n                SafeMath.sub(\r\n                    (sqrt\r\n                        (\r\n                            (_tokenPriceInitial**2)\r\n                            +\r\n                            (2*(tokenPriceIncremental_ * 1e18)*(_ethereum * 1e18))\r\n                            +\r\n                            (((tokenPriceIncremental_)**2)*(TotalSupply**2))\r\n                            +\r\n                            (2*(tokenPriceIncremental_)*_tokenPriceInitial*TotalSupply)\r\n                        )\r\n                    ), _tokenPriceInitial\r\n                )\r\n            )/(tokenPriceIncremental_)\r\n        )-(TotalSupply)\r\n        ;\r\n        \r\n            return _tokensReceived;\r\n    }\r\n    \r\n    \r\n            function sqrt(uint x) internal pure returns (uint y) {\r\n        uint z = (x + 1) / 2;\r\n        y = x;\r\n        while (z < y) {\r\n            y = z;\r\n            z = (x / z + z) / 2;\r\n        }\r\n    }\r\n    \r\n    \r\n}\r\n\r\n\r\n\r\n\r\n\r\nlibrary SafeMath {\r\n\r\n   \r\n    function mul(uint256 a, uint256 b) internal pure returns (uint256) {\r\n        if (a == 0) {\r\n            return 0;\r\n        }\r\n        uint256 c = a * b;\r\n        assert(c / a == b);\r\n        return c;\r\n    }\r\n\r\n   \r\n    function div(uint256 a, uint256 b) internal pure returns (uint256) {\r\n        // assert(b > 0); // Solidity automatically throws when dividing by 0\r\n        uint256 c = a / b;\r\n        // assert(a == b * c + a % b); // There is no case in which this doesn't hold\r\n        return c;\r\n    }\r\n\r\n    \r\n    function sub(uint256 a, uint256 b) internal pure returns (uint256) {\r\n        assert(b <= a);\r\n        return a - b;\r\n    }\r\n\r\n   \r\n    function add(uint256 a, uint256 b) internal pure returns (uint256) {\r\n        uint256 c = a + b;\r\n        assert(c >= a);\r\n        return c;\r\n    }\r\n\r\n/**\r\n* Also in memory of JPK, miss you Dad.\r\n*/\r\n    \r\n}\r\n\r\n\r\n\r\n\r\n\r\n\r\n\r\n\r\n\r\n\r\n\r\n\r\n\r\n",
  "sourcePath": "D:/fiverr/Owen/GoldSeek/contracts/Price5.sol",
  "compiler": {
    "name": "solc",
    "version": "0.8.0+commit.c7dfd78e.Emscripten.clang"
  },
  "schemaVersion": "3.3.4",
  "updatedAt": "2021-06-16T02:21:38.382Z",
  "networkType": "ethereum",
  "devdoc": {
    "kind": "dev",
    "methods": {},
    "version": 1
  },
  "userdoc": {
    "kind": "user",
    "methods": {},
    "version": 1
  }
}