{
  "contractName": "GoldSeek3",
  "abi": [
    {
      "inputs": [],
      "stateMutability": "nonpayable",
      "type": "constructor"
    },
    {
      "anonymous": false,
      "inputs": [
        {
          "indexed": false,
          "internalType": "address",
          "name": "buyer",
          "type": "address"
        },
        {
          "indexed": false,
          "internalType": "uint256",
          "name": "amount",
          "type": "uint256"
        }
      ],
      "name": "Buy",
      "type": "event"
    },
    {
      "inputs": [],
      "name": "DividendPool",
      "outputs": [
        {
          "internalType": "uint256",
          "name": "",
          "type": "uint256"
        }
      ],
      "stateMutability": "view",
      "type": "function",
      "constant": true
    },
    {
      "inputs": [],
      "name": "TotalEthStaked",
      "outputs": [
        {
          "internalType": "uint256",
          "name": "",
          "type": "uint256"
        }
      ],
      "stateMutability": "view",
      "type": "function",
      "constant": true
    },
    {
      "inputs": [],
      "name": "TotalSupply",
      "outputs": [
        {
          "internalType": "uint256",
          "name": "",
          "type": "uint256"
        }
      ],
      "stateMutability": "view",
      "type": "function",
      "constant": true
    },
    {
      "inputs": [
        {
          "internalType": "address",
          "name": "",
          "type": "address"
        }
      ],
      "name": "_ReferralCommission",
      "outputs": [
        {
          "internalType": "uint256",
          "name": "",
          "type": "uint256"
        }
      ],
      "stateMutability": "view",
      "type": "function",
      "constant": true
    },
    {
      "inputs": [],
      "name": "_existingPrice",
      "outputs": [
        {
          "internalType": "uint256",
          "name": "",
          "type": "uint256"
        }
      ],
      "stateMutability": "view",
      "type": "function",
      "constant": true
    },
    {
      "inputs": [
        {
          "internalType": "address",
          "name": "",
          "type": "address"
        }
      ],
      "name": "_holderBalances",
      "outputs": [
        {
          "internalType": "uint256",
          "name": "",
          "type": "uint256"
        }
      ],
      "stateMutability": "view",
      "type": "function",
      "constant": true
    },
    {
      "inputs": [
        {
          "internalType": "address",
          "name": "",
          "type": "address"
        }
      ],
      "name": "_holderPaidOUt",
      "outputs": [
        {
          "internalType": "uint256",
          "name": "",
          "type": "uint256"
        }
      ],
      "stateMutability": "view",
      "type": "function",
      "constant": true
    },
    {
      "inputs": [
        {
          "internalType": "address",
          "name": "",
          "type": "address"
        }
      ],
      "name": "_holderPersonalEth",
      "outputs": [
        {
          "internalType": "uint256",
          "name": "",
          "type": "uint256"
        }
      ],
      "stateMutability": "view",
      "type": "function",
      "constant": true
    },
    {
      "inputs": [
        {
          "internalType": "address",
          "name": "",
          "type": "address"
        }
      ],
      "name": "_referrerMapping",
      "outputs": [
        {
          "internalType": "address",
          "name": "",
          "type": "address"
        }
      ],
      "stateMutability": "view",
      "type": "function",
      "constant": true
    },
    {
      "inputs": [],
      "name": "owner",
      "outputs": [
        {
          "internalType": "address",
          "name": "",
          "type": "address"
        }
      ],
      "stateMutability": "view",
      "type": "function",
      "constant": true
    },
    {
      "inputs": [],
      "name": "rateOfDiv",
      "outputs": [
        {
          "internalType": "uint256",
          "name": "",
          "type": "uint256"
        }
      ],
      "stateMutability": "view",
      "type": "function",
      "constant": true
    },
    {
      "inputs": [],
      "name": "tTransferPUblic",
      "outputs": [
        {
          "internalType": "uint256",
          "name": "",
          "type": "uint256"
        }
      ],
      "stateMutability": "view",
      "type": "function",
      "constant": true
    },
    {
      "inputs": [],
      "name": "tfeepublic",
      "outputs": [
        {
          "internalType": "uint256",
          "name": "",
          "type": "uint256"
        }
      ],
      "stateMutability": "view",
      "type": "function",
      "constant": true
    },
    {
      "inputs": [],
      "name": "tokenPriceInitial_",
      "outputs": [
        {
          "internalType": "uint256",
          "name": "",
          "type": "uint256"
        }
      ],
      "stateMutability": "view",
      "type": "function",
      "constant": true
    },
    {
      "inputs": [],
      "name": "valueforSale",
      "outputs": [
        {
          "internalType": "uint256",
          "name": "",
          "type": "uint256"
        }
      ],
      "stateMutability": "view",
      "type": "function",
      "constant": true
    },
    {
      "inputs": [
        {
          "internalType": "address",
          "name": "referrer",
          "type": "address"
        }
      ],
      "name": "buy",
      "outputs": [],
      "stateMutability": "payable",
      "type": "function",
      "payable": true
    },
    {
      "inputs": [],
      "name": "existingPrice",
      "outputs": [
        {
          "internalType": "uint256",
          "name": "",
          "type": "uint256"
        }
      ],
      "stateMutability": "view",
      "type": "function",
      "constant": true
    },
    {
      "inputs": [
        {
          "internalType": "uint256",
          "name": "number",
          "type": "uint256"
        }
      ],
      "name": "sell",
      "outputs": [],
      "stateMutability": "payable",
      "type": "function",
      "payable": true
    },
    {
      "inputs": [
        {
          "internalType": "address",
          "name": "holder",
          "type": "address"
        }
      ],
      "name": "dividendBalance",
      "outputs": [
        {
          "internalType": "uint256",
          "name": "",
          "type": "uint256"
        }
      ],
      "stateMutability": "view",
      "type": "function",
      "constant": true
    },
    {
      "inputs": [
        {
          "internalType": "address",
          "name": "holder",
          "type": "address"
        }
      ],
      "name": "ReferralBalance",
      "outputs": [
        {
          "internalType": "uint256",
          "name": "",
          "type": "uint256"
        }
      ],
      "stateMutability": "view",
      "type": "function",
      "constant": true
    },
    {
      "inputs": [
        {
          "internalType": "uint256",
          "name": "amount",
          "type": "uint256"
        }
      ],
      "name": "withdrawrReferral",
      "outputs": [],
      "stateMutability": "payable",
      "type": "function",
      "payable": true
    },
    {
      "inputs": [
        {
          "internalType": "uint256",
          "name": "amount",
          "type": "uint256"
        }
      ],
      "name": "withdrawDividend",
      "outputs": [],
      "stateMutability": "payable",
      "type": "function",
      "payable": true
    },
    {
      "inputs": [
        {
          "internalType": "uint256",
          "name": "amount",
          "type": "uint256"
        }
      ],
      "name": "withdrawPersonalEth",
      "outputs": [],
      "stateMutability": "payable",
      "type": "function",
      "payable": true
    },
    {
      "inputs": [],
      "name": "balanceOf",
      "outputs": [
        {
          "internalType": "uint256",
          "name": "",
          "type": "uint256"
        },
        {
          "internalType": "uint256",
          "name": "",
          "type": "uint256"
        },
        {
          "internalType": "uint256",
          "name": "",
          "type": "uint256"
        },
        {
          "internalType": "uint256",
          "name": "",
          "type": "uint256"
        }
      ],
      "stateMutability": "view",
      "type": "function",
      "constant": true
    },
    {
      "inputs": [
        {
          "internalType": "uint256",
          "name": "tamount",
          "type": "uint256"
        }
      ],
      "name": "getTValues",
      "outputs": [
        {
          "internalType": "uint256",
          "name": "",
          "type": "uint256"
        },
        {
          "internalType": "uint256",
          "name": "",
          "type": "uint256"
        },
        {
          "internalType": "uint256",
          "name": "",
          "type": "uint256"
        },
        {
          "internalType": "uint256",
          "name": "",
          "type": "uint256"
        },
        {
          "internalType": "uint256",
          "name": "",
          "type": "uint256"
        }
      ],
      "stateMutability": "view",
      "type": "function",
      "constant": true
    },
    {
      "inputs": [
        {
          "internalType": "uint256",
          "name": "tamount",
          "type": "uint256"
        }
      ],
      "name": "getSValues",
      "outputs": [
        {
          "internalType": "uint256",
          "name": "",
          "type": "uint256"
        },
        {
          "internalType": "uint256",
          "name": "",
          "type": "uint256"
        }
      ],
      "stateMutability": "view",
      "type": "function",
      "constant": true
    },
    {
      "inputs": [
        {
          "internalType": "uint256",
          "name": "_ethereum",
          "type": "uint256"
        }
      ],
      "name": "ethereumToTokens_",
      "outputs": [
        {
          "internalType": "uint256",
          "name": "",
          "type": "uint256"
        }
      ],
      "stateMutability": "view",
      "type": "function",
      "constant": true
    }
  ],
  "bytecode": "0x608060405264174876e8006005556ba0d000000000000000000000600860006101000a81548173ffffffffffffffffffffffffffffffffffffffff021916908373ffffffffffffffffffffffffffffffffffffffff16021790555073412fc8f58d2c68d5c1c7a011660aefa5f261d862600960006101000a81548173ffffffffffffffffffffffffffffffffffffffff021916908373ffffffffffffffffffffffffffffffffffffffff160217905550737cfa8cd3da48de9d86ad221662f38a1295d177ec600a60006101000a81548173ffffffffffffffffffffffffffffffffffffffff021916908373ffffffffffffffffffffffffffffffffffffffff1602179055506019600b55600a600c556007600d556003600e556005600f556007601055600060135534801561013357600080fd5b5033600660006101000a81548173ffffffffffffffffffffffffffffffffffffffff021916908373ffffffffffffffffffffffffffffffffffffffff160217905550611fe0806101846000396000f3fe60806040526004361061019c5760003560e01c80638e32380e116100ec578063bf3dd4f11161008a578063dceaa84711610064578063dceaa847146105fa578063e4849b3214610638578063f088d54714610654578063f6efd4c3146106705761019c565b8063bf3dd4f114610551578063c4c1b39a1461058e578063da743da0146105b95761019c565b8063a44b47f7116100c6578063a44b47f714610493578063b3d0b121146104be578063b49fbd7e146104e9578063baa0523f146105145761019c565b80638e32380e146104005780639a7727e71461042b578063a0afd731146104565761019c565b80633998fc44116101595780635d260527116101335780635d2605271461034e5780635d9bd8b21461038b578063722713f7146103a75780638da5cb5b146103d55761019c565b80633998fc44146102ca578063434590af146102e657806346669e17146103115761019c565b806304cd9ccd146101a15780630ccd0834146101de5780631a9fdbd51461021b5780632388cc1a146102465780632a562134146102625780632a9121c71461028d575b600080fd5b3480156101ad57600080fd5b506101c860048036038101906101c391906117d2565b61069b565b6040516101d59190611b24565b60405180910390f35b3480156101ea57600080fd5b50610205600480360381019061020091906117d2565b6106e4565b6040516102129190611b24565b60405180910390f35b34801561022757600080fd5b506102306106fc565b60405161023d9190611b24565b60405180910390f35b610260600480360381019061025b91906117fb565b61072f565b005b34801561026e57600080fd5b50610277610851565b6040516102849190611b24565b60405180910390f35b34801561029957600080fd5b506102b460048036038101906102af91906117fb565b610857565b6040516102c19190611b24565b60405180910390f35b6102e460048036038101906102df91906117fb565b610974565b005b3480156102f257600080fd5b506102fb610a96565b6040516103089190611b24565b60405180910390f35b34801561031d57600080fd5b50610338600480360381019061033391906117d2565b610a9c565b6040516103459190611b24565b60405180910390f35b34801561035a57600080fd5b50610375600480360381019061037091906117d2565b610ab4565b6040516103829190611b24565b60405180910390f35b6103a560048036038101906103a091906117fb565b610acc565b005b3480156103b357600080fd5b506103bc610bb7565b6040516103cc9493929190611b68565b60405180910390f35b3480156103e157600080fd5b506103ea610cf1565b6040516103f79190611a40565b60405180910390f35b34801561040c57600080fd5b50610415610d17565b6040516104229190611b24565b60405180910390f35b34801561043757600080fd5b50610440610d1d565b60405161044d9190611b24565b60405180910390f35b34801561046257600080fd5b5061047d600480360381019061047891906117d2565b610d23565b60405161048a9190611b24565b60405180910390f35b34801561049f57600080fd5b506104a8610de1565b6040516104b59190611b24565b60405180910390f35b3480156104ca57600080fd5b506104d3610de7565b6040516104e09190611b24565b60405180910390f35b3480156104f557600080fd5b506104fe610ded565b60405161050b9190611b24565b60405180910390f35b34801561052057600080fd5b5061053b600480360381019061053691906117d2565b610df3565b6040516105489190611a40565b60405180910390f35b34801561055d57600080fd5b50610578600480360381019061057391906117d2565b610e26565b6040516105859190611b24565b60405180910390f35b34801561059a57600080fd5b506105a3610e3e565b6040516105b09190611b24565b60405180910390f35b3480156105c557600080fd5b506105e060048036038101906105db91906117fb565b610e47565b6040516105f1959493929190611bad565b60405180910390f35b34801561060657600080fd5b50610621600480360381019061061c91906117fb565b610f12565b60405161062f929190611b3f565b60405180910390f35b610652600480360381019061064d91906117fb565b610f50565b005b61066e600480360381019061066991906117d2565b611124565b005b34801561067c57600080fd5b506106856116b2565b6040516106929190611b24565b60405180910390f35b6000600360008373ffffffffffffffffffffffffffffffffffffffff1673ffffffffffffffffffffffffffffffffffffffff168152602001908152602001600020549050919050565b60006020528060005260406000206000915090505481565b6000806013541480610714575064174876e800600554105b156107265764174876e800905061072c565b60055490505b90565b80600260003373ffffffffffffffffffffffffffffffffffffffff1673ffffffffffffffffffffffffffffffffffffffff1681526020019081526020016000205410156107b1576040517f08c379a00000000000000000000000000000000000000000000000000000000081526004016107a890611aa4565b60405180910390fd5b80600260003373ffffffffffffffffffffffffffffffffffffffff1673ffffffffffffffffffffffffffffffffffffffff16815260200190815260200160002060008282546108009190611e63565b925050819055503373ffffffffffffffffffffffffffffffffffffffff166108fc829081150290604051600060405180830381858888f1935050505015801561084d573d6000803e3d6000fd5b5050565b60075481565b600080670de0b6b3a764000064174876e8006108739190611e09565b905060006013546402540be40061095461094e601354866402540be400600261089c9190611e09565b6108a69190611e09565b6108b09190611e09565b60026013546108bf9190611ceb565b60026402540be4006108d19190611ceb565b6108db9190611e09565b670de0b6b3a76400008a6108ef9190611e09565b670de0b6b3a76400006402540be4006109089190611e09565b60026109149190611e09565b61091e9190611e09565b60028961092b9190611ceb565b6109359190611c11565b61093f9190611c11565b6109499190611c11565b6116b8565b85611715565b61095e9190611c67565b6109689190611e63565b90508092505050919050565b80600360003373ffffffffffffffffffffffffffffffffffffffff1673ffffffffffffffffffffffffffffffffffffffff1681526020019081526020016000205410156109f6576040517f08c379a00000000000000000000000000000000000000000000000000000000081526004016109ed90611a84565b60405180910390fd5b80600360003373ffffffffffffffffffffffffffffffffffffffff1673ffffffffffffffffffffffffffffffffffffffff1681526020019081526020016000206000828254610a459190611e63565b925050819055503373ffffffffffffffffffffffffffffffffffffffff166108fc829081150290604051600060405180830381858888f19350505050158015610a92573d6000803e3d6000fd5b5050565b60145481565b60036020528060005260406000206000915090505481565b60016020528060005260406000206000915090505481565b80610ad633610d23565b1015610b17576040517f08c379a0000000000000000000000000000000000000000000000000000000008152600401610b0e90611b04565b60405180910390fd5b80600160003373ffffffffffffffffffffffffffffffffffffffff1673ffffffffffffffffffffffffffffffffffffffff1681526020019081526020016000206000828254610b669190611c11565b925050819055503373ffffffffffffffffffffffffffffffffffffffff166108fc829081150290604051600060405180830381858888f19350505050158015610bb3573d6000803e3d6000fd5b5050565b600080600080601354600080600a60009054906101000a900473ffffffffffffffffffffffffffffffffffffffff1673ffffffffffffffffffffffffffffffffffffffff1673ffffffffffffffffffffffffffffffffffffffff16815260200190815260200160002054600080600960009054906101000a900473ffffffffffffffffffffffffffffffffffffffff1673ffffffffffffffffffffffffffffffffffffffff1673ffffffffffffffffffffffffffffffffffffffff16815260200190815260200160002054600080600860009054906101000a900473ffffffffffffffffffffffffffffffffffffffff1673ffffffffffffffffffffffffffffffffffffffff1673ffffffffffffffffffffffffffffffffffffffff16815260200190815260200160002054935093509350935090919293565b600660009054906101000a900473ffffffffffffffffffffffffffffffffffffffff1681565b60055481565b60165481565b600080680100000000000000006011546000808673ffffffffffffffffffffffffffffffffffffffff1673ffffffffffffffffffffffffffffffffffffffff16815260200190815260200160002054610d7c9190611e09565b610d869190611c67565b90506000600160008573ffffffffffffffffffffffffffffffffffffffff1673ffffffffffffffffffffffffffffffffffffffff1681526020019081526020016000205482610dd59190611e63565b90508092505050919050565b60135481565b60115481565b60155481565b60046020528060005260406000206000915054906101000a900473ffffffffffffffffffffffffffffffffffffffff1681565b60026020528060005260406000206000915090505481565b64174876e80081565b600080600080600080600b54606488610e609190611c67565b610e6a9190611e09565b90506000600c54606489610e7e9190611c67565b610e889190611e09565b90506000600d5460648a610e9c9190611c67565b610ea69190611e09565b90506000600e5460648b610eba9190611c67565b610ec49190611e09565b90506000600f5460648c610ed89190611c67565b610ee29190611e09565b90506000858c610ef29190611e63565b905080858585859a509a509a509a509a5050505050505091939590929450565b6000806000601054606485610f279190611c67565b610f319190611e09565b905060008185610f419190611e63565b90508082935093505050915091565b806000803373ffffffffffffffffffffffffffffffffffffffff1673ffffffffffffffffffffffffffffffffffffffff168152602001908152602001600020541015610fd1576040517f08c379a0000000000000000000000000000000000000000000000000000000008152600401610fc890611ac4565b60405180910390fd5b806000803373ffffffffffffffffffffffffffffffffffffffff1673ffffffffffffffffffffffffffffffffffffffff168152602001908152602001600020600082825461101f9190611e63565b9250508190555080601360008282546110389190611e63565b925050819055506005548161104d9190611e09565b60148190555067016345785d8a00006402540be40060145461106f9190611e09565b6110799190611c67565b6005546110869190611e63565b60058190555060008061109a601454610f12565b91509150816015819055508060168190555081600260003373ffffffffffffffffffffffffffffffffffffffff1673ffffffffffffffffffffffffffffffffffffffff16815260200190815260200160002060008282546110fb9190611c11565b9250508190555061110b81611762565b816007546111199190611e63565b600781905550505050565b600080600080600061113534610e47565b9450945094509450945064174876e800341015611187576040517f08c379a000000000000000000000000000000000000000000000000000000000815260040161117e90611ae4565b60405180910390fd5b600080601354148061119f575064174876e800600554105b6111ab576005546111b2565b64174876e8005b9050600081876111c29190611ee0565b9050600081886111d29190611e63565b9050600083826111e29190611c67565b90506000600460008c73ffffffffffffffffffffffffffffffffffffffff1673ffffffffffffffffffffffffffffffffffffffff16815260200190815260200160002060009054906101000a900473ffffffffffffffffffffffffffffffffffffffff169050816000803373ffffffffffffffffffffffffffffffffffffffff1673ffffffffffffffffffffffffffffffffffffffff16815260200190815260200160002060008282546112969190611c11565b925050819055508560036000600860009054906101000a900473ffffffffffffffffffffffffffffffffffffffff1673ffffffffffffffffffffffffffffffffffffffff1673ffffffffffffffffffffffffffffffffffffffff168152602001908152602001600020600082825461130e9190611c11565b92505081905550600073ffffffffffffffffffffffffffffffffffffffff168b73ffffffffffffffffffffffffffffffffffffffff161461152a5787600360008d73ffffffffffffffffffffffffffffffffffffffff1673ffffffffffffffffffffffffffffffffffffffff16815260200190815260200160002060008282546113989190611c11565b925050819055508a600460003373ffffffffffffffffffffffffffffffffffffffff1673ffffffffffffffffffffffffffffffffffffffff16815260200190815260200160002060006101000a81548173ffffffffffffffffffffffffffffffffffffffff021916908373ffffffffffffffffffffffffffffffffffffffff160217905550600073ffffffffffffffffffffffffffffffffffffffff168173ffffffffffffffffffffffffffffffffffffffff16146114ac5786600360008373ffffffffffffffffffffffffffffffffffffffff1673ffffffffffffffffffffffffffffffffffffffff16815260200190815260200160002060008282546114a09190611c11565b92505081905550611525565b8660036000600860009054906101000a900473ffffffffffffffffffffffffffffffffffffffff1673ffffffffffffffffffffffffffffffffffffffff1673ffffffffffffffffffffffffffffffffffffffff168152602001908152602001600020600082825461151d9190611c11565b925050819055505b6115f7565b8760036000600860009054906101000a900473ffffffffffffffffffffffffffffffffffffffff1673ffffffffffffffffffffffffffffffffffffffff1673ffffffffffffffffffffffffffffffffffffffff168152602001908152602001600020819055508660036000600860009054906101000a900473ffffffffffffffffffffffffffffffffffffffff1673ffffffffffffffffffffffffffffffffffffffff1673ffffffffffffffffffffffffffffffffffffffff168152602001908152602001600020819055505b81601360008282546116099190611c11565b9250508190555061161989611762565b346007600082825461162b9190611c11565b92505081905550670de0b6b3a76400006402540be4003461164c9190611e09565b6116569190611c67565b64174876e8006116669190611c11565b6005819055507fe3d4187f6ca4248660cc0ac8b8056515bac4a8132be2eca31d6d0cc170722a7e338360405161169d929190611a5b565b60405180910390a15050505050505050505050565b60125481565b60008060026001846116ca9190611c11565b6116d49190611c67565b90508291505b8181101561170f5780915060028182856116f49190611c67565b6116fe9190611c11565b6117089190611c67565b90506116da565b50919050565b60008282111561174e577f4e487b7100000000000000000000000000000000000000000000000000000000600052600160045260246000fd5b818361175a9190611e63565b905092915050565b80601260008282546117749190611c11565b92505081905550601354680100000000000000006012546117959190611e09565b61179f9190611c67565b60118190555050565b6000813590506117b781611f7c565b92915050565b6000813590506117cc81611f93565b92915050565b6000602082840312156117e457600080fd5b60006117f2848285016117a8565b91505092915050565b60006020828403121561180d57600080fd5b600061181b848285016117bd565b91505092915050565b61182d81611e97565b82525050565b6000611840602b83611c00565b91507f616d6f75746e206d757374206e6f74206578636565642074686520726566657260008301527f72616c2062616c616e63650000000000000000000000000000000000000000006020830152604082019050919050565b60006118a6602883611c00565b91507f616d6f756e74206973206d6f7265207468616e2074686520706572736f6e616c60008301527f2062616c616e63650000000000000000000000000000000000000000000000006020830152604082019050919050565b600061190c602683611c00565b91507f616d6f756e74206d757374206265206c6573736572207468616e20746865206260008301527f616c616e636500000000000000000000000000000000000000000000000000006020830152604082019050919050565b6000611972602483611c00565b91507f616d6f756e74206d757374206265206772656174686572207468616e20302e3160008301527f20424e42000000000000000000000000000000000000000000000000000000006020830152604082019050919050565b60006119d8602883611c00565b91507f616d6f756e74206973206d6f7265207468616e20746865206469766964656e6460008301527f2062616c616e63650000000000000000000000000000000000000000000000006020830152604082019050919050565b611a3a81611ec9565b82525050565b6000602082019050611a556000830184611824565b92915050565b6000604082019050611a706000830185611824565b611a7d6020830184611a31565b9392505050565b60006020820190508181036000830152611a9d81611833565b9050919050565b60006020820190508181036000830152611abd81611899565b9050919050565b60006020820190508181036000830152611add816118ff565b9050919050565b60006020820190508181036000830152611afd81611965565b9050919050565b60006020820190508181036000830152611b1d816119cb565b9050919050565b6000602082019050611b396000830184611a31565b92915050565b6000604082019050611b546000830185611a31565b611b616020830184611a31565b9392505050565b6000608082019050611b7d6000830187611a31565b611b8a6020830186611a31565b611b976040830185611a31565b611ba46060830184611a31565b95945050505050565b600060a082019050611bc26000830188611a31565b611bcf6020830187611a31565b611bdc6040830186611a31565b611be96060830185611a31565b611bf66080830184611a31565b9695505050505050565b600082825260208201905092915050565b6000611c1c82611ec9565b9150611c2783611ec9565b9250827fffffffffffffffffffffffffffffffffffffffffffffffffffffffffffffffff03821115611c5c57611c5b611f11565b5b828201905092915050565b6000611c7282611ec9565b9150611c7d83611ec9565b925082611c8d57611c8c611f40565b5b828204905092915050565b6000808291508390505b6001851115611ce257808604811115611cbe57611cbd611f11565b5b6001851615611ccd5780820291505b8081029050611cdb85611f6f565b9450611ca2565b94509492505050565b6000611cf682611ec9565b9150611d0183611ed3565b9250611d2e7fffffffffffffffffffffffffffffffffffffffffffffffffffffffffffffffff8484611d36565b905092915050565b600082611d465760019050611e02565b81611d545760009050611e02565b8160018114611d6a5760028114611d7457611da3565b6001915050611e02565b60ff841115611d8657611d85611f11565b5b8360020a915084821115611d9d57611d9c611f11565b5b50611e02565b5060208310610133831016604e8410600b8410161715611dd85782820a905083811115611dd357611dd2611f11565b5b611e02565b611de58484846001611c98565b92509050818404811115611dfc57611dfb611f11565b5b81810290505b9392505050565b6000611e1482611ec9565b9150611e1f83611ec9565b9250817fffffffffffffffffffffffffffffffffffffffffffffffffffffffffffffffff0483118215151615611e5857611e57611f11565b5b828202905092915050565b6000611e6e82611ec9565b9150611e7983611ec9565b925082821015611e8c57611e8b611f11565b5b828203905092915050565b6000611ea282611ea9565b9050919050565b600073ffffffffffffffffffffffffffffffffffffffff82169050919050565b6000819050919050565b600060ff82169050919050565b6000611eeb82611ec9565b9150611ef683611ec9565b925082611f0657611f05611f40565b5b828206905092915050565b7f4e487b7100000000000000000000000000000000000000000000000000000000600052601160045260246000fd5b7f4e487b7100000000000000000000000000000000000000000000000000000000600052601260045260246000fd5b60008160011c9050919050565b611f8581611e97565b8114611f9057600080fd5b50565b611f9c81611ec9565b8114611fa757600080fd5b5056fea2646970667358221220be547eafa0105c160f66245e0400ba22ca8bcbf350cc0ee5cfedc653e3385d4264736f6c63430008000033",
  "immutableReferences": {},
  "source": "// SPDX-License-Identifier: MIT\r\n\r\npragma solidity ^0.8.0;\r\n\r\ncontract GoldSeek3 {\r\n     uint256 constant public tokenPriceInitial_ = 0.0000001 ether;\r\n     uint256 constant internal tokenPriceIncremental_ = 0.00000001 ether;\r\n     \r\n     uint256 constant internal magnitude = 2**64;\r\n    mapping (address => uint256) public _holderBalances;\r\n    mapping (address => uint256) public _holderPaidOUt;\r\n    mapping (address => uint256) public _holderPersonalEth;\r\n    mapping (address => uint256) public _ReferralCommission;\r\n    mapping (address => address) public _referrerMapping;\r\nuint256 public _existingPrice = tokenPriceInitial_;\r\n    address public owner;\r\n//    uint256 public RSupply;\r\n    uint256 public TotalEthStaked;\r\n    address _admin = 0x0000000000000000A0D000000000000000000000;  \r\n    address _Referer = 0x412fc8F58D2c68D5C1c7A011660aefA5f261d862;\r\n    address I_Referer = 0x7cfa8CD3DA48dE9D86aD221662f38A1295D177eC;\r\n    uint256 commission = 25;\r\n    uint256 redistribution = 10;\r\n    uint256 direcREferCommission = 7;\r\n    uint256 inDirecREferCommission = 3;\r\n    uint256 adminFee = 5;\r\n    uint256 SellingCommission = 7;\r\n    uint256 public rateOfDiv;\r\n    uint256 public DividendPool;\r\n\r\n //   uint256 public DividendPerToken;\r\n    \r\n    uint256 public TotalSupply = 0;\r\n    \r\n    constructor (){\r\n        owner = msg.sender;\r\n    }\r\n    \r\n    \r\n    event Buy (address buyer, uint256 amount);\r\n    function buy(address referrer)public payable {\r\n        \r\n        (\r\n          uint256 tTransfer,\r\n          uint256 dist,\r\n         uint256 drc,\r\n         uint256 Idrc,\r\n         uint256 afee) = getTValues(msg.value);\r\n        \r\n         require(msg.value>=tokenPriceInitial_,\"amount must be greather than 0.1 BNB\");\r\n         uint256 price = TotalSupply==0 || _existingPrice< tokenPriceInitial_? tokenPriceInitial_ :_existingPrice;\r\n         uint256 Purremainder = tTransfer%price;\r\n         uint256 tokenValue = tTransfer - Purremainder;\r\n         uint256 tokenQty = tokenValue / price;\r\n        address indRferrer = _referrerMapping[referrer];\r\n        \r\n        _holderBalances[msg.sender] += tokenQty; \r\n        _ReferralCommission[_admin] += afee;\r\n    \r\n        if(referrer != 0x0000000000000000000000000000000000000000)\r\n            {_ReferralCommission[referrer] += drc;\r\n              _referrerMapping[msg.sender] = referrer;\r\n                if(indRferrer != 0x0000000000000000000000000000000000000000){_ReferralCommission[indRferrer] += Idrc;}\r\n                else{_ReferralCommission[_admin]+=Idrc;}\r\n            }\r\n        else{_ReferralCommission[_admin]= drc; _ReferralCommission[_admin]= Idrc;}\r\n        \r\n\r\n    \r\n        \r\n        TotalSupply += tokenQty;\r\n        processDiv(dist);\r\n        TotalEthStaked += msg.value;\r\n        _existingPrice = tokenPriceInitial_ + (msg.value*tokenPriceIncremental_/1000000000000000000);\r\n        \r\n//        processEthStocked(msg.value,true);\r\n        \r\n        emit Buy(msg.sender,tokenQty);\r\n        \r\n        }\r\n        \r\n\r\n    function existingPrice() view public returns(uint256){\r\n        if(TotalSupply==0 || _existingPrice < tokenPriceInitial_){return tokenPriceInitial_;}\r\n        else{return _existingPrice;}\r\n    }\r\n    \r\n    uint256 public valueforSale;\r\n    uint256  public tTransferPUblic; \r\n    uint256  public tfeepublic; \r\n    \r\n    function sell(uint256 number) public payable {\r\n        \r\n        \r\n         require(_holderBalances[msg.sender]>=number,\"amount must be lesser than the balance\");\r\n         _holderBalances[msg.sender]-=number;\r\n         TotalSupply -=number;\r\n         valueforSale = number*(_existingPrice);\r\n         _existingPrice = _existingPrice -(valueforSale*tokenPriceIncremental_/100000000000000000);\r\n        \r\n         (\r\n           uint256 tTransfer,uint256 tfee) = getSValues(valueforSale);\r\n        \r\n        tTransferPUblic = tTransfer;\r\n        tfeepublic = tfee;\r\n         \r\n        _holderPersonalEth[msg.sender] += tTransfer;\r\n\r\n        processDiv(tfee);\r\n        TotalEthStaked = TotalEthStaked-tTransfer;\r\n        \r\n    }\r\n    \r\n    \r\n    function processEthStocked (uint256 amount, bool trx)internal {\r\n      if(trx == true){TotalEthStaked += amount;}\r\n      else if(trx == false){TotalEthStaked -= amount;}\r\n    }\r\n    \r\n    // function Dividendsell(uint256 number) public payable {\r\n    \r\n        \r\n\r\n    //     _holderBalances[address(this)] -= number;\r\n    \r\n    //      TotalSupply -= number;\r\n         \r\n    //      uint256 rate = ethereumToTokens_(100000000000);\r\n    //      uint256 valueOFSell = number*rate / (100000000000 * 1000000000000000000);\r\n    //     _holderPersonalEth[msg.sender] += valueOFSell;\r\n        \r\n    // }\r\n    \r\n    function processDiv(uint256 tfee) internal {\r\n        DividendPool += tfee;\r\n        rateOfDiv = DividendPool * magnitude / TotalSupply;\r\n    }\r\n    \r\n    function dividendBalance(address holder) public view returns(uint256) {\r\n        uint256 _dividendBalance = _holderBalances[holder] * rateOfDiv / magnitude;\r\n        uint256 dividendTopay = _dividendBalance - _holderPaidOUt[holder];\r\n        return dividendTopay;\r\n    }\r\n    \r\n    function ReferralBalance(address holder) public view returns(uint256) {\r\n        return _ReferralCommission[holder];\r\n    }\r\n    \r\n    function withdrawrReferral(uint256 amount) public payable {\r\n    require(_ReferralCommission[msg.sender] >=amount,\"amoutn must not exceed the referral balance\");\r\n    _ReferralCommission[msg.sender]-=amount;\r\n    payable(msg.sender).transfer(amount);\r\n    }\r\n    \r\n    function withdrawDividend(uint256 amount) payable public {\r\n        require(dividendBalance(msg.sender)>=amount,\"amount is more than the dividend balance\");\r\n        _holderPaidOUt[msg.sender] += amount;\r\n         payable(msg.sender).transfer(amount);\r\n    }\r\n    \r\nfunction withdrawPersonalEth(uint256 amount) payable public {\r\n        require(_holderPersonalEth[msg.sender]>=amount,\"amount is more than the personal balance\");\r\n        _holderPersonalEth[msg.sender] -= amount;\r\n         payable(msg.sender).transfer(amount);\r\n    }\r\n    \r\n    \r\nfunction balanceOf() public view returns(uint256,uint256,uint256,uint256){\r\n        return (TotalSupply,_holderBalances[I_Referer],_holderBalances[_Referer],_holderBalances[_admin]);\r\n    }\r\n\r\n\r\nfunction getTValues (uint256 tamount) public view returns (uint256,uint256,uint256,uint256,uint256){\r\n        uint256 tfee = tamount/100*commission;\r\n        uint256 dist = tamount/100*redistribution;\r\n        uint256 drc = tamount/100*direcREferCommission;\r\n        uint256 Idrc = tamount/100*inDirecREferCommission;\r\n        uint256 afee = tamount/100*adminFee;\r\n        uint256 tTransfer = tamount-tfee;\r\n        return ( tTransfer,dist,drc,Idrc,afee);\r\n    }\r\n    \r\n    \r\n    function getSValues (uint256 tamount) public view returns (uint256,uint256){\r\n        uint256 tfee = tamount/100*SellingCommission;\r\n        uint256 tTransfer = tamount-tfee;\r\n        return ( tTransfer,tfee);\r\n    }\r\n    \r\n\r\n    \r\n    \r\n    \r\n\r\nfunction ethereumToTokens_(uint256 _ethereum)\r\n        public\r\n        view\r\n        returns(uint256)\r\n    {\r\n        uint256 _tokenPriceInitial = tokenPriceInitial_ * 1e18;\r\n        uint256 _tokensReceived = \r\n         (\r\n            (\r\n                // underflow attempts BTFO\r\n                SafeMath.sub(\r\n                    (sqrt\r\n                        (\r\n                            (_tokenPriceInitial**2)\r\n                            +\r\n                            (2*(tokenPriceIncremental_ * 1e18)*(_ethereum * 1e18))\r\n                            +\r\n                            (((tokenPriceIncremental_)**2)*(TotalSupply**2))\r\n                            +\r\n                            (2*(tokenPriceIncremental_)*_tokenPriceInitial*TotalSupply)\r\n                        )\r\n                    ), _tokenPriceInitial\r\n                )\r\n            )/(tokenPriceIncremental_)\r\n        )-(TotalSupply)\r\n        ;\r\n        \r\n            return _tokensReceived;\r\n    }\r\n    \r\n    \r\n            function sqrt(uint x) internal pure returns (uint y) {\r\n        uint z = (x + 1) / 2;\r\n        y = x;\r\n        while (z < y) {\r\n            y = z;\r\n            z = (x / z + z) / 2;\r\n        }\r\n    }\r\n    \r\n    \r\n}\r\n\r\n\r\n\r\n\r\n\r\nlibrary SafeMath {\r\n\r\n   \r\n    function mul(uint256 a, uint256 b) internal pure returns (uint256) {\r\n        if (a == 0) {\r\n            return 0;\r\n        }\r\n        uint256 c = a * b;\r\n        assert(c / a == b);\r\n        return c;\r\n    }\r\n\r\n   \r\n    function div(uint256 a, uint256 b) internal pure returns (uint256) {\r\n        // assert(b > 0); // Solidity automatically throws when dividing by 0\r\n        uint256 c = a / b;\r\n        // assert(a == b * c + a % b); // There is no case in which this doesn't hold\r\n        return c;\r\n    }\r\n\r\n    \r\n    function sub(uint256 a, uint256 b) internal pure returns (uint256) {\r\n        assert(b <= a);\r\n        return a - b;\r\n    }\r\n\r\n   \r\n    function add(uint256 a, uint256 b) internal pure returns (uint256) {\r\n        uint256 c = a + b;\r\n        assert(c >= a);\r\n        return c;\r\n    }\r\n\r\n/**\r\n* Also in memory of JPK, miss you Dad.\r\n*/\r\n    \r\n}\r\n\r\n\r\n\r\n\r\n\r\n\r\n\r\n\r\n\r\n\r\n\r\n\r\n\r\n",
  "sourcePath": "D:/fiverr/Owen/GoldSeek/contracts/Price5.sol",
  "compiler": {
    "name": "solc",
    "version": "0.8.0+commit.c7dfd78e.Emscripten.clang"
  },
  "schemaVersion": "3.3.4",
  "updatedAt": "2021-06-27T16:01:36.710Z",
  "networkType": "ethereum",
  "devdoc": {
    "kind": "dev",
    "methods": {},
    "version": 1
  },
  "userdoc": {
    "kind": "user",
    "methods": {},
    "version": 1
  }
}