{
  "contractName": "GoldSeek3",
  "abi": [
    {
      "inputs": [],
      "stateMutability": "nonpayable",
      "type": "constructor"
    },
    {
      "inputs": [],
      "name": "DividendPool",
      "outputs": [
        {
          "internalType": "uint256",
          "name": "",
          "type": "uint256"
        }
      ],
      "stateMutability": "view",
      "type": "function",
      "constant": true
    },
    {
      "inputs": [],
      "name": "TotalEthStaked",
      "outputs": [
        {
          "internalType": "uint256",
          "name": "",
          "type": "uint256"
        }
      ],
      "stateMutability": "view",
      "type": "function",
      "constant": true
    },
    {
      "inputs": [],
      "name": "TotalSupply",
      "outputs": [
        {
          "internalType": "uint256",
          "name": "",
          "type": "uint256"
        }
      ],
      "stateMutability": "view",
      "type": "function",
      "constant": true
    },
    {
      "inputs": [
        {
          "internalType": "address",
          "name": "",
          "type": "address"
        }
      ],
      "name": "_ReferralCommission",
      "outputs": [
        {
          "internalType": "uint256",
          "name": "",
          "type": "uint256"
        }
      ],
      "stateMutability": "view",
      "type": "function",
      "constant": true
    },
    {
      "inputs": [
        {
          "internalType": "address",
          "name": "",
          "type": "address"
        }
      ],
      "name": "_holderBalances",
      "outputs": [
        {
          "internalType": "uint256",
          "name": "",
          "type": "uint256"
        }
      ],
      "stateMutability": "view",
      "type": "function",
      "constant": true
    },
    {
      "inputs": [
        {
          "internalType": "address",
          "name": "",
          "type": "address"
        }
      ],
      "name": "_holderPaidOUt",
      "outputs": [
        {
          "internalType": "uint256",
          "name": "",
          "type": "uint256"
        }
      ],
      "stateMutability": "view",
      "type": "function",
      "constant": true
    },
    {
      "inputs": [
        {
          "internalType": "address",
          "name": "",
          "type": "address"
        }
      ],
      "name": "_holderPersonalEth",
      "outputs": [
        {
          "internalType": "uint256",
          "name": "",
          "type": "uint256"
        }
      ],
      "stateMutability": "view",
      "type": "function",
      "constant": true
    },
    {
      "inputs": [
        {
          "internalType": "address",
          "name": "",
          "type": "address"
        }
      ],
      "name": "_referrerMapping",
      "outputs": [
        {
          "internalType": "address",
          "name": "",
          "type": "address"
        }
      ],
      "stateMutability": "view",
      "type": "function",
      "constant": true
    },
    {
      "inputs": [],
      "name": "owner",
      "outputs": [
        {
          "internalType": "address",
          "name": "",
          "type": "address"
        }
      ],
      "stateMutability": "view",
      "type": "function",
      "constant": true
    },
    {
      "inputs": [],
      "name": "payment",
      "outputs": [
        {
          "internalType": "uint256",
          "name": "",
          "type": "uint256"
        }
      ],
      "stateMutability": "view",
      "type": "function",
      "constant": true
    },
    {
      "inputs": [],
      "name": "rateOfDiv",
      "outputs": [
        {
          "internalType": "uint256",
          "name": "",
          "type": "uint256"
        }
      ],
      "stateMutability": "view",
      "type": "function",
      "constant": true
    },
    {
      "inputs": [],
      "name": "tokenPriceInitial_",
      "outputs": [
        {
          "internalType": "uint256",
          "name": "",
          "type": "uint256"
        }
      ],
      "stateMutability": "view",
      "type": "function",
      "constant": true
    },
    {
      "inputs": [
        {
          "internalType": "address",
          "name": "referrer",
          "type": "address"
        }
      ],
      "name": "buy",
      "outputs": [
        {
          "internalType": "uint256",
          "name": "",
          "type": "uint256"
        }
      ],
      "stateMutability": "payable",
      "type": "function",
      "payable": true
    },
    {
      "inputs": [
        {
          "internalType": "uint256",
          "name": "number",
          "type": "uint256"
        }
      ],
      "name": "sell",
      "outputs": [],
      "stateMutability": "payable",
      "type": "function",
      "payable": true
    },
    {
      "inputs": [
        {
          "internalType": "address",
          "name": "holder",
          "type": "address"
        }
      ],
      "name": "dividendBalance",
      "outputs": [
        {
          "internalType": "uint256",
          "name": "",
          "type": "uint256"
        }
      ],
      "stateMutability": "view",
      "type": "function",
      "constant": true
    },
    {
      "inputs": [
        {
          "internalType": "address",
          "name": "holder",
          "type": "address"
        }
      ],
      "name": "ReferralBalance",
      "outputs": [
        {
          "internalType": "uint256",
          "name": "",
          "type": "uint256"
        }
      ],
      "stateMutability": "view",
      "type": "function",
      "constant": true
    },
    {
      "inputs": [
        {
          "internalType": "uint256",
          "name": "amount",
          "type": "uint256"
        }
      ],
      "name": "withdrawrReferral",
      "outputs": [],
      "stateMutability": "payable",
      "type": "function",
      "payable": true
    },
    {
      "inputs": [
        {
          "internalType": "uint256",
          "name": "amount",
          "type": "uint256"
        }
      ],
      "name": "withdrawDividend",
      "outputs": [],
      "stateMutability": "payable",
      "type": "function",
      "payable": true
    },
    {
      "inputs": [
        {
          "internalType": "uint256",
          "name": "amount",
          "type": "uint256"
        }
      ],
      "name": "withdrawPersonalEth",
      "outputs": [],
      "stateMutability": "payable",
      "type": "function",
      "payable": true
    },
    {
      "inputs": [],
      "name": "balanceOf",
      "outputs": [
        {
          "internalType": "uint256",
          "name": "",
          "type": "uint256"
        },
        {
          "internalType": "uint256",
          "name": "",
          "type": "uint256"
        },
        {
          "internalType": "uint256",
          "name": "",
          "type": "uint256"
        },
        {
          "internalType": "uint256",
          "name": "",
          "type": "uint256"
        }
      ],
      "stateMutability": "view",
      "type": "function",
      "constant": true
    },
    {
      "inputs": [
        {
          "internalType": "uint256",
          "name": "tamount",
          "type": "uint256"
        }
      ],
      "name": "getTValues",
      "outputs": [
        {
          "internalType": "uint256",
          "name": "",
          "type": "uint256"
        },
        {
          "internalType": "uint256",
          "name": "",
          "type": "uint256"
        },
        {
          "internalType": "uint256",
          "name": "",
          "type": "uint256"
        },
        {
          "internalType": "uint256",
          "name": "",
          "type": "uint256"
        },
        {
          "internalType": "uint256",
          "name": "",
          "type": "uint256"
        }
      ],
      "stateMutability": "view",
      "type": "function",
      "constant": true
    },
    {
      "inputs": [
        {
          "internalType": "uint256",
          "name": "tamount",
          "type": "uint256"
        }
      ],
      "name": "getSValues",
      "outputs": [
        {
          "internalType": "uint256",
          "name": "",
          "type": "uint256"
        },
        {
          "internalType": "uint256",
          "name": "",
          "type": "uint256"
        }
      ],
      "stateMutability": "view",
      "type": "function",
      "constant": true
    },
    {
      "inputs": [
        {
          "internalType": "uint256",
          "name": "_ethereum",
          "type": "uint256"
        }
      ],
      "name": "ethereumToTokens_",
      "outputs": [
        {
          "internalType": "uint256",
          "name": "",
          "type": "uint256"
        }
      ],
      "stateMutability": "view",
      "type": "function",
      "constant": true
    }
  ],
  "bytecode": "0x60806040526ba0d000000000000000000000600760006101000a81548173ffffffffffffffffffffffffffffffffffffffff021916908373ffffffffffffffffffffffffffffffffffffffff16021790555073412fc8f58d2c68d5c1c7a011660aefa5f261d862600860006101000a81548173ffffffffffffffffffffffffffffffffffffffff021916908373ffffffffffffffffffffffffffffffffffffffff160217905550737cfa8cd3da48de9d86ad221662f38a1295d177ec600960006101000a81548173ffffffffffffffffffffffffffffffffffffffff021916908373ffffffffffffffffffffffffffffffffffffffff1602179055506019600a55600a600b556007600c556003600d556005600e556007600f55600060125534801561012a57600080fd5b5033600560006101000a81548173ffffffffffffffffffffffffffffffffffffffff021916908373ffffffffffffffffffffffffffffffffffffffff160217905550611be58061017b6000396000f3fe6080604052600436106101405760003560e01c80638da5cb5b116100b6578063c4c1b39a1161006f578063c4c1b39a14610486578063da743da0146104b1578063dceaa847146104f2578063e4849b3214610530578063f088d5471461054c578063f6efd4c31461057c57610140565b80638da5cb5b1461034e578063a0afd73114610379578063a44b47f7146103b6578063b3d0b121146103e1578063baa0523f1461040c578063bf3dd4f11461044957610140565b80633998fc44116101085780633998fc441461024357806342f6487a1461025f57806346669e171461028a5780635d260527146102c75780635d9bd8b214610304578063722713f71461032057610140565b806304cd9ccd146101455780630ccd0834146101825780632388cc1a146101bf5780632a562134146101db5780632a9121c714610206575b600080fd5b34801561015157600080fd5b5061016c6004803603810190610167919061153d565b6105a7565b604051610179919061175a565b60405180910390f35b34801561018e57600080fd5b506101a960048036038101906101a4919061153d565b6105f0565b6040516101b6919061175a565b60405180910390f35b6101d960048036038101906101d49190611566565b610608565b005b3480156101e757600080fd5b506101f061072a565b6040516101fd919061175a565b60405180910390f35b34801561021257600080fd5b5061022d60048036038101906102289190611566565b610730565b60405161023a919061175a565b60405180910390f35b61025d60048036038101906102589190611566565b61084d565b005b34801561026b57600080fd5b5061027461096f565b604051610281919061175a565b60405180910390f35b34801561029657600080fd5b506102b160048036038101906102ac919061153d565b610975565b6040516102be919061175a565b60405180910390f35b3480156102d357600080fd5b506102ee60048036038101906102e9919061153d565b61098d565b6040516102fb919061175a565b60405180910390f35b61031e60048036038101906103199190611566565b6109a5565b005b34801561032c57600080fd5b50610335610a90565b604051610345949392919061179e565b60405180910390f35b34801561035a57600080fd5b50610363610bca565b60405161037091906116df565b60405180910390f35b34801561038557600080fd5b506103a0600480360381019061039b919061153d565b610bf0565b6040516103ad919061175a565b60405180910390f35b3480156103c257600080fd5b506103cb610cae565b6040516103d8919061175a565b60405180910390f35b3480156103ed57600080fd5b506103f6610cb4565b604051610403919061175a565b60405180910390f35b34801561041857600080fd5b50610433600480360381019061042e919061153d565b610cba565b60405161044091906116df565b60405180910390f35b34801561045557600080fd5b50610470600480360381019061046b919061153d565b610ced565b60405161047d919061175a565b60405180910390f35b34801561049257600080fd5b5061049b610d05565b6040516104a8919061175a565b60405180910390f35b3480156104bd57600080fd5b506104d860048036038101906104d39190611566565b610d0e565b6040516104e99594939291906117e3565b60405180910390f35b3480156104fe57600080fd5b5061051960048036038101906105149190611566565b610dd9565b604051610527929190611775565b60405180910390f35b61054a60048036038101906105459190611566565b610e17565b005b6105666004803603810190610561919061153d565b610f50565b604051610573919061175a565b60405180910390f35b34801561058857600080fd5b506105916113e0565b60405161059e919061175a565b60405180910390f35b6000600360008373ffffffffffffffffffffffffffffffffffffffff1673ffffffffffffffffffffffffffffffffffffffff168152602001908152602001600020549050919050565b60006020528060005260406000206000915090505481565b80600260003373ffffffffffffffffffffffffffffffffffffffff1673ffffffffffffffffffffffffffffffffffffffff16815260200190815260200160002054101561068a576040517f08c379a00000000000000000000000000000000000000000000000000000000081526004016106819061171a565b60405180910390fd5b80600260003373ffffffffffffffffffffffffffffffffffffffff1673ffffffffffffffffffffffffffffffffffffffff16815260200190815260200160002060008282546106d99190611a99565b925050819055503373ffffffffffffffffffffffffffffffffffffffff166108fc829081150290604051600060405180830381858888f19350505050158015610726573d6000803e3d6000fd5b5050565b60065481565b600080670de0b6b3a764000064174876e80061074c9190611a3f565b905060006012546402540be40061082d610827601254866402540be40060026107759190611a3f565b61077f9190611a3f565b6107899190611a3f565b60026012546107989190611921565b60026402540be4006107aa9190611921565b6107b49190611a3f565b670de0b6b3a76400008a6107c89190611a3f565b670de0b6b3a76400006402540be4006107e19190611a3f565b60026107ed9190611a3f565b6107f79190611a3f565b6002896108049190611921565b61080e9190611847565b6108189190611847565b6108229190611847565b6113e6565b85611443565b610837919061189d565b6108419190611a99565b90508092505050919050565b80600360003373ffffffffffffffffffffffffffffffffffffffff1673ffffffffffffffffffffffffffffffffffffffff1681526020019081526020016000205410156108cf576040517f08c379a00000000000000000000000000000000000000000000000000000000081526004016108c6906116fa565b60405180910390fd5b80600360003373ffffffffffffffffffffffffffffffffffffffff1673ffffffffffffffffffffffffffffffffffffffff168152602001908152602001600020600082825461091e9190611a99565b925050819055503373ffffffffffffffffffffffffffffffffffffffff166108fc829081150290604051600060405180830381858888f1935050505015801561096b573d6000803e3d6000fd5b5050565b60135481565b60036020528060005260406000206000915090505481565b60016020528060005260406000206000915090505481565b806109af33610bf0565b10156109f0576040517f08c379a00000000000000000000000000000000000000000000000000000000081526004016109e79061173a565b60405180910390fd5b80600160003373ffffffffffffffffffffffffffffffffffffffff1673ffffffffffffffffffffffffffffffffffffffff1681526020019081526020016000206000828254610a3f9190611847565b925050819055503373ffffffffffffffffffffffffffffffffffffffff166108fc829081150290604051600060405180830381858888f19350505050158015610a8c573d6000803e3d6000fd5b5050565b600080600080601254600080600960009054906101000a900473ffffffffffffffffffffffffffffffffffffffff1673ffffffffffffffffffffffffffffffffffffffff1673ffffffffffffffffffffffffffffffffffffffff16815260200190815260200160002054600080600860009054906101000a900473ffffffffffffffffffffffffffffffffffffffff1673ffffffffffffffffffffffffffffffffffffffff1673ffffffffffffffffffffffffffffffffffffffff16815260200190815260200160002054600080600760009054906101000a900473ffffffffffffffffffffffffffffffffffffffff1673ffffffffffffffffffffffffffffffffffffffff1673ffffffffffffffffffffffffffffffffffffffff16815260200190815260200160002054935093509350935090919293565b600560009054906101000a900473ffffffffffffffffffffffffffffffffffffffff1681565b600080680100000000000000006010546000808673ffffffffffffffffffffffffffffffffffffffff1673ffffffffffffffffffffffffffffffffffffffff16815260200190815260200160002054610c499190611a3f565b610c53919061189d565b90506000600160008573ffffffffffffffffffffffffffffffffffffffff1673ffffffffffffffffffffffffffffffffffffffff1681526020019081526020016000205482610ca29190611a99565b90508092505050919050565b60125481565b60105481565b60046020528060005260406000206000915054906101000a900473ffffffffffffffffffffffffffffffffffffffff1681565b60026020528060005260406000206000915090505481565b64174876e80081565b600080600080600080600a54606488610d27919061189d565b610d319190611a3f565b90506000600b54606489610d45919061189d565b610d4f9190611a3f565b90506000600c5460648a610d63919061189d565b610d6d9190611a3f565b90506000600d5460648b610d81919061189d565b610d8b9190611a3f565b90506000600e5460648c610d9f919061189d565b610da99190611a3f565b90506000858c610db99190611a99565b905080858585859a509a509a509a509a5050505050505091939590929450565b6000806000600f54606485610dee919061189d565b610df89190611a3f565b905060008185610e089190611a99565b90508082935093505050915091565b6000610e2764174876e800610730565b9050600064174876e8008284610e3d9190611a3f565b610e47919061189d565b9050600080610e5583610dd9565b91509150846000803373ffffffffffffffffffffffffffffffffffffffff1673ffffffffffffffffffffffffffffffffffffffff1681526020019081526020016000206000828254610ea79190611a99565b925050819055508460126000828254610ec09190611a99565b9250508190555081600260003373ffffffffffffffffffffffffffffffffffffffff1673ffffffffffffffffffffffffffffffffffffffff1681526020019081526020016000206000828254610f169190611847565b925050819055508060116000828254610f2f9190611847565b92505081905550610f3e611490565b610f498260006114bc565b5050505050565b600080600080600080610f6234610d0e565b945094509450945094506000610f7786610730565b90506000600460008a73ffffffffffffffffffffffffffffffffffffffff1673ffffffffffffffffffffffffffffffffffffffff16815260200190815260200160002060009054906101000a900473ffffffffffffffffffffffffffffffffffffffff169050816000803373ffffffffffffffffffffffffffffffffffffffff1673ffffffffffffffffffffffffffffffffffffffff168152602001908152602001600020600082825461102b9190611847565b925050819055508260036000600760009054906101000a900473ffffffffffffffffffffffffffffffffffffffff1673ffffffffffffffffffffffffffffffffffffffff1673ffffffffffffffffffffffffffffffffffffffff16815260200190815260200160002060008282546110a39190611847565b9250508190555085601160008282546110bc9190611847565b92505081905550600073ffffffffffffffffffffffffffffffffffffffff168973ffffffffffffffffffffffffffffffffffffffff16146112d85784600360008b73ffffffffffffffffffffffffffffffffffffffff1673ffffffffffffffffffffffffffffffffffffffff16815260200190815260200160002060008282546111469190611847565b9250508190555088600460003373ffffffffffffffffffffffffffffffffffffffff1673ffffffffffffffffffffffffffffffffffffffff16815260200190815260200160002060006101000a81548173ffffffffffffffffffffffffffffffffffffffff021916908373ffffffffffffffffffffffffffffffffffffffff160217905550600073ffffffffffffffffffffffffffffffffffffffff168173ffffffffffffffffffffffffffffffffffffffff161461125a5783600360008373ffffffffffffffffffffffffffffffffffffffff1673ffffffffffffffffffffffffffffffffffffffff168152602001908152602001600020600082825461124e9190611847565b925050819055506112d3565b8360036000600760009054906101000a900473ffffffffffffffffffffffffffffffffffffffff1673ffffffffffffffffffffffffffffffffffffffff1673ffffffffffffffffffffffffffffffffffffffff16815260200190815260200160002060008282546112cb9190611847565b925050819055505b6113a5565b8460036000600760009054906101000a900473ffffffffffffffffffffffffffffffffffffffff1673ffffffffffffffffffffffffffffffffffffffff1673ffffffffffffffffffffffffffffffffffffffff168152602001908152602001600020819055508360036000600760009054906101000a900473ffffffffffffffffffffffffffffffffffffffff1673ffffffffffffffffffffffffffffffffffffffff1673ffffffffffffffffffffffffffffffffffffffff168152602001908152602001600020819055505b81601260008282546113b79190611847565b925050819055506113c6611490565b6113d13460016114bc565b81975050505050505050919050565b60115481565b60008060026001846113f89190611847565b611402919061189d565b90508291505b8181101561143d578091506002818285611422919061189d565b61142c9190611847565b611436919061189d565b9050611408565b50919050565b60008282111561147c577f4e487b7100000000000000000000000000000000000000000000000000000000600052600160045260246000fd5b81836114889190611a99565b905092915050565b601254680100000000000000006011546114aa9190611a3f565b6114b4919061189d565b601081905550565b6001151581151514156114e75781600660008282546114db9190611847565b9250508190555061150f565b60001515811515141561150e5781600660008282546115069190611a99565b925050819055505b5b5050565b60008135905061152281611b81565b92915050565b60008135905061153781611b98565b92915050565b60006020828403121561154f57600080fd5b600061155d84828501611513565b91505092915050565b60006020828403121561157857600080fd5b600061158684828501611528565b91505092915050565b61159881611acd565b82525050565b60006115ab602b83611836565b91507f616d6f75746e206d757374206e6f74206578636565642074686520726566657260008301527f72616c2062616c616e63650000000000000000000000000000000000000000006020830152604082019050919050565b6000611611602883611836565b91507f616d6f756e74206973206d6f7265207468616e2074686520706572736f6e616c60008301527f2062616c616e63650000000000000000000000000000000000000000000000006020830152604082019050919050565b6000611677602883611836565b91507f616d6f756e74206973206d6f7265207468616e20746865206469766964656e6460008301527f2062616c616e63650000000000000000000000000000000000000000000000006020830152604082019050919050565b6116d981611aff565b82525050565b60006020820190506116f4600083018461158f565b92915050565b600060208201905081810360008301526117138161159e565b9050919050565b6000602082019050818103600083015261173381611604565b9050919050565b600060208201905081810360008301526117538161166a565b9050919050565b600060208201905061176f60008301846116d0565b92915050565b600060408201905061178a60008301856116d0565b61179760208301846116d0565b9392505050565b60006080820190506117b360008301876116d0565b6117c060208301866116d0565b6117cd60408301856116d0565b6117da60608301846116d0565b95945050505050565b600060a0820190506117f860008301886116d0565b61180560208301876116d0565b61181260408301866116d0565b61181f60608301856116d0565b61182c60808301846116d0565b9695505050505050565b600082825260208201905092915050565b600061185282611aff565b915061185d83611aff565b9250827fffffffffffffffffffffffffffffffffffffffffffffffffffffffffffffffff0382111561189257611891611b16565b5b828201905092915050565b60006118a882611aff565b91506118b383611aff565b9250826118c3576118c2611b45565b5b828204905092915050565b6000808291508390505b6001851115611918578086048111156118f4576118f3611b16565b5b60018516156119035780820291505b808102905061191185611b74565b94506118d8565b94509492505050565b600061192c82611aff565b915061193783611b09565b92506119647fffffffffffffffffffffffffffffffffffffffffffffffffffffffffffffffff848461196c565b905092915050565b60008261197c5760019050611a38565b8161198a5760009050611a38565b81600181146119a057600281146119aa576119d9565b6001915050611a38565b60ff8411156119bc576119bb611b16565b5b8360020a9150848211156119d3576119d2611b16565b5b50611a38565b5060208310610133831016604e8410600b8410161715611a0e5782820a905083811115611a0957611a08611b16565b5b611a38565b611a1b84848460016118ce565b92509050818404811115611a3257611a31611b16565b5b81810290505b9392505050565b6000611a4a82611aff565b9150611a5583611aff565b9250817fffffffffffffffffffffffffffffffffffffffffffffffffffffffffffffffff0483118215151615611a8e57611a8d611b16565b5b828202905092915050565b6000611aa482611aff565b9150611aaf83611aff565b925082821015611ac257611ac1611b16565b5b828203905092915050565b6000611ad882611adf565b9050919050565b600073ffffffffffffffffffffffffffffffffffffffff82169050919050565b6000819050919050565b600060ff82169050919050565b7f4e487b7100000000000000000000000000000000000000000000000000000000600052601160045260246000fd5b7f4e487b7100000000000000000000000000000000000000000000000000000000600052601260045260246000fd5b60008160011c9050919050565b611b8a81611acd565b8114611b9557600080fd5b50565b611ba181611aff565b8114611bac57600080fd5b5056fea26469706673582212206c2b4ee0fdc75b113a979237f444181bee2e31ef79df8587e6de4a9369a3659164736f6c63430008000033",
  "immutableReferences": {},
  "source": "// SPDX-License-Identifier: MIT\r\n\r\npragma solidity ^0.8.0;\r\n\r\ncontract GoldSeek3 {\r\n     uint256 constant public tokenPriceInitial_ = 0.0000001 ether;\r\n     uint256 constant internal tokenPriceIncremental_ = 0.00000001 ether;\r\n     \r\n     uint256 constant internal magnitude = 2**64;\r\n    mapping (address => uint256) public _holderBalances;\r\n    mapping (address => uint256) public _holderPaidOUt;\r\n    mapping (address => uint256) public _holderPersonalEth;\r\n    mapping (address => uint256) public _ReferralCommission;\r\n    mapping (address => address) public _referrerMapping;\r\n\r\n    address public owner;\r\n//    uint256 public RSupply;\r\n    uint256 public TotalEthStaked;\r\n    address _admin = 0x0000000000000000A0D000000000000000000000;  \r\n    address _Referer = 0x412fc8F58D2c68D5C1c7A011660aefA5f261d862;\r\n    address I_Referer = 0x7cfa8CD3DA48dE9D86aD221662f38A1295D177eC;\r\n    uint256 commission = 25;\r\n    uint256 redistribution = 10;\r\n    uint256 direcREferCommission = 7;\r\n    uint256 inDirecREferCommission = 3;\r\n    uint256 adminFee = 5;\r\n    uint256 SellingCommission = 7;\r\n    uint256 public rateOfDiv;\r\n    uint256 public DividendPool;\r\n //   uint256 public DividendPerToken;\r\n    \r\n    uint256 public TotalSupply = 0;\r\n    \r\n    constructor (){\r\n        owner = msg.sender;\r\n    }\r\n    \r\n    \r\n    \r\n    function buy(address referrer)public payable returns(uint256){\r\n        \r\n        (\r\n          uint256 tTransfer,\r\n          uint256 dist,\r\n         uint256 drc,\r\n         uint256 Idrc,\r\n         uint256 afee) = getTValues(msg.value);\r\n        \r\n        \r\n        uint256 tokens = ethereumToTokens_(tTransfer);\r\n    address indRferrer = _referrerMapping[referrer];\r\n        \r\n        _holderBalances[msg.sender] += tokens; \r\n        _ReferralCommission[_admin] += afee;\r\n        DividendPool += dist;\r\n        if(referrer != 0x0000000000000000000000000000000000000000)\r\n            {_ReferralCommission[referrer] += drc;\r\n              _referrerMapping[msg.sender] = referrer;\r\n                if(indRferrer != 0x0000000000000000000000000000000000000000){_ReferralCommission[indRferrer] += Idrc;}\r\n                else{_ReferralCommission[_admin]+=Idrc;}\r\n            }\r\n        else{_ReferralCommission[_admin]= drc; _ReferralCommission[_admin]= Idrc;}\r\n        \r\n\r\n    \r\n        \r\n        TotalSupply += tokens;\r\n        processDiv();\r\n        processEthStocked(msg.value,true);\r\n        \r\n        return tokens;\r\n        \r\n        }\r\n        \r\n     uint256 public payment;\r\n    \r\n    function sell(uint256 number) public payable {\r\n        \r\n        \r\n         uint256 rate = ethereumToTokens_(100000000000);\r\n         uint256 valueOFSell = number*rate / 100000000000;\r\n        \r\n        (\r\n          uint256 tTransfer,uint256 tfee) = getSValues(valueOFSell);\r\n        \r\n\r\n        _holderBalances[msg.sender] -= number;\r\n\r\n         TotalSupply -= number;\r\n         \r\n        _holderPersonalEth[msg.sender] += tTransfer;\r\n        DividendPool += tfee;\r\n        processDiv();\r\n        processEthStocked(tTransfer,false);\r\n        \r\n    }\r\n    \r\n    \r\n    function processEthStocked (uint256 amount, bool trx)internal {\r\n      if(trx == true){TotalEthStaked += amount;}\r\n      else if(trx == false){TotalEthStaked -= amount;}\r\n    }\r\n    \r\n    // function Dividendsell(uint256 number) public payable {\r\n    \r\n        \r\n\r\n    //     _holderBalances[address(this)] -= number;\r\n    \r\n    //      TotalSupply -= number;\r\n         \r\n    //      uint256 rate = ethereumToTokens_(100000000000);\r\n    //      uint256 valueOFSell = number*rate / (100000000000 * 1000000000000000000);\r\n    //     _holderPersonalEth[msg.sender] += valueOFSell;\r\n        \r\n    // }\r\n    \r\n    function processDiv() internal {\r\n        rateOfDiv = DividendPool * magnitude / TotalSupply;\r\n    }\r\n    \r\n    function dividendBalance(address holder) public view returns(uint256) {\r\n        uint256 _dividendBalance = _holderBalances[holder] * rateOfDiv / magnitude;\r\n        uint256 dividendTopay = _dividendBalance - _holderPaidOUt[holder];\r\n        return dividendTopay;\r\n    }\r\n    \r\n    function ReferralBalance(address holder) public view returns(uint256) {\r\n        return _ReferralCommission[holder];\r\n    }\r\n    \r\n    function withdrawrReferral(uint256 amount) public payable {\r\n    require(_ReferralCommission[msg.sender] >=amount,\"amoutn must not exceed the referral balance\");\r\n    _ReferralCommission[msg.sender]-=amount;\r\n    payable(msg.sender).transfer(amount);\r\n    }\r\n    \r\n    function withdrawDividend(uint256 amount) payable public {\r\n        require(dividendBalance(msg.sender)>=amount,\"amount is more than the dividend balance\");\r\n        _holderPaidOUt[msg.sender] += amount;\r\n         payable(msg.sender).transfer(amount);\r\n    }\r\n    \r\nfunction withdrawPersonalEth(uint256 amount) payable public {\r\n        require(_holderPersonalEth[msg.sender]>=amount,\"amount is more than the personal balance\");\r\n        _holderPersonalEth[msg.sender] -= amount;\r\n         payable(msg.sender).transfer(amount);\r\n    }\r\n    \r\n    \r\nfunction balanceOf() public view returns(uint256,uint256,uint256,uint256){\r\n        return (TotalSupply,_holderBalances[I_Referer],_holderBalances[_Referer],_holderBalances[_admin]);\r\n    }\r\n\r\n\r\nfunction getTValues (uint256 tamount) public view returns (uint256,uint256,uint256,uint256,uint256){\r\n        uint256 tfee = tamount/100*commission;\r\n        uint256 dist = tamount/100*redistribution;\r\n        uint256 drc = tamount/100*direcREferCommission;\r\n        uint256 Idrc = tamount/100*inDirecREferCommission;\r\n        uint256 afee = tamount/100*adminFee;\r\n        uint256 tTransfer = tamount-tfee;\r\n        return ( tTransfer,dist,drc,Idrc,afee);\r\n    }\r\n    \r\n    \r\n    function getSValues (uint256 tamount) public view returns (uint256,uint256){\r\n        uint256 tfee = tamount/100*SellingCommission;\r\n        uint256 tTransfer = tamount-tfee;\r\n        return ( tTransfer,tfee);\r\n    }\r\n    \r\n\r\n    \r\n    \r\n    \r\n\r\nfunction ethereumToTokens_(uint256 _ethereum)\r\n        public\r\n        view\r\n        returns(uint256)\r\n    {\r\n        uint256 _tokenPriceInitial = tokenPriceInitial_ * 1e18;\r\n        uint256 _tokensReceived = \r\n         (\r\n            (\r\n                // underflow attempts BTFO\r\n                SafeMath.sub(\r\n                    (sqrt\r\n                        (\r\n                            (_tokenPriceInitial**2)\r\n                            +\r\n                            (2*(tokenPriceIncremental_ * 1e18)*(_ethereum * 1e18))\r\n                            +\r\n                            (((tokenPriceIncremental_)**2)*(TotalSupply**2))\r\n                            +\r\n                            (2*(tokenPriceIncremental_)*_tokenPriceInitial*TotalSupply)\r\n                        )\r\n                    ), _tokenPriceInitial\r\n                )\r\n            )/(tokenPriceIncremental_)\r\n        )-(TotalSupply)\r\n        ;\r\n        \r\n            return _tokensReceived;\r\n    }\r\n    \r\n    \r\n            function sqrt(uint x) internal pure returns (uint y) {\r\n        uint z = (x + 1) / 2;\r\n        y = x;\r\n        while (z < y) {\r\n            y = z;\r\n            z = (x / z + z) / 2;\r\n        }\r\n    }\r\n    \r\n    \r\n}\r\n\r\n\r\n\r\n\r\n\r\nlibrary SafeMath {\r\n\r\n   \r\n    function mul(uint256 a, uint256 b) internal pure returns (uint256) {\r\n        if (a == 0) {\r\n            return 0;\r\n        }\r\n        uint256 c = a * b;\r\n        assert(c / a == b);\r\n        return c;\r\n    }\r\n\r\n   \r\n    function div(uint256 a, uint256 b) internal pure returns (uint256) {\r\n        // assert(b > 0); // Solidity automatically throws when dividing by 0\r\n        uint256 c = a / b;\r\n        // assert(a == b * c + a % b); // There is no case in which this doesn't hold\r\n        return c;\r\n    }\r\n\r\n    \r\n    function sub(uint256 a, uint256 b) internal pure returns (uint256) {\r\n        assert(b <= a);\r\n        return a - b;\r\n    }\r\n\r\n   \r\n    function add(uint256 a, uint256 b) internal pure returns (uint256) {\r\n        uint256 c = a + b;\r\n        assert(c >= a);\r\n        return c;\r\n    }\r\n\r\n/**\r\n* Also in memory of JPK, miss you Dad.\r\n*/\r\n    \r\n}\r\n\r\n\r\n\r\n\r\n\r\n\r\n\r\n\r\n\r\n\r\n\r\n\r\n\r\n",
  "sourcePath": "D:/fiverr/Owen/GoldSeek/contracts/Price5.sol",
  "compiler": {
    "name": "solc",
    "version": "0.8.0+commit.c7dfd78e.Emscripten.clang"
  },
  "schemaVersion": "3.3.4",
  "updatedAt": "2021-06-17T19:35:37.718Z",
  "networkType": "ethereum",
  "devdoc": {
    "kind": "dev",
    "methods": {},
    "version": 1
  },
  "userdoc": {
    "kind": "user",
    "methods": {},
    "version": 1
  }
}